{
  "_format": "hh-sol-artifact-1",
  "contractName": "GovernorAlpha",
  "sourceName": "contracts/GovernorAlpha.sol",
  "abi": [
    {
      "inputs": [
        {
          "internalType": "address",
          "name": "timelock_",
          "type": "address"
        },
        {
          "internalType": "address",
          "name": "taro_",
          "type": "address"
        },
        {
          "internalType": "address",
          "name": "guardian_",
          "type": "address"
        }
      ],
      "payable": false,
      "stateMutability": "nonpayable",
      "type": "constructor"
    },
    {
      "anonymous": false,
      "inputs": [
        {
          "indexed": false,
          "internalType": "uint256",
          "name": "id",
          "type": "uint256"
        }
      ],
      "name": "ProposalCreated",
      "type": "event"
    },
    {
      "anonymous": false,
      "inputs": [
        {
          "indexed": false,
          "internalType": "address",
          "name": "voter",
          "type": "address"
        },
        {
          "indexed": false,
          "internalType": "uint256",
          "name": "proposalId",
          "type": "uint256"
        },
        {
          "indexed": false,
          "internalType": "bool",
          "name": "support",
          "type": "bool"
        },
        {
          "indexed": false,
          "internalType": "uint256",
          "name": "votes",
          "type": "uint256"
        }
      ],
      "name": "VoteCast",
      "type": "event"
    },
    {
      "constant": false,
      "inputs": [
        {
          "internalType": "uint256",
          "name": "proposalId",
          "type": "uint256"
        },
        {
          "internalType": "bool",
          "name": "support",
          "type": "bool"
        }
      ],
      "name": "castVote",
      "outputs": [],
      "payable": false,
      "stateMutability": "nonpayable",
      "type": "function"
    },
    {
      "constant": true,
      "inputs": [
        {
          "internalType": "uint256",
          "name": "proposalId",
          "type": "uint256"
        },
        {
          "internalType": "address",
          "name": "voter",
          "type": "address"
        }
      ],
      "name": "getReceipt",
      "outputs": [
        {
          "components": [
            {
              "internalType": "bool",
              "name": "hasVoted",
              "type": "bool"
            },
            {
              "internalType": "bool",
              "name": "support",
              "type": "bool"
            },
            {
              "internalType": "uint96",
              "name": "votes",
              "type": "uint96"
            }
          ],
          "internalType": "struct GovernorAlpha.Receipt",
          "name": "",
          "type": "tuple"
        }
      ],
      "payable": false,
      "stateMutability": "view",
      "type": "function"
    },
    {
      "constant": true,
      "inputs": [],
      "name": "guardian",
      "outputs": [
        {
          "internalType": "address",
          "name": "",
          "type": "address"
        }
      ],
      "payable": false,
      "stateMutability": "view",
      "type": "function"
    },
    {
      "constant": true,
      "inputs": [
        {
          "internalType": "uint256",
          "name": "",
          "type": "uint256"
        }
      ],
      "name": "isProposalActive",
      "outputs": [
        {
          "internalType": "bool",
          "name": "",
          "type": "bool"
        }
      ],
      "payable": false,
      "stateMutability": "view",
      "type": "function"
    },
    {
      "constant": true,
      "inputs": [
        {
          "internalType": "address",
          "name": "",
          "type": "address"
        }
      ],
      "name": "latestProposalIds",
      "outputs": [
        {
          "internalType": "uint256",
          "name": "",
          "type": "uint256"
        }
      ],
      "payable": false,
      "stateMutability": "view",
      "type": "function"
    },
    {
      "constant": true,
      "inputs": [],
      "name": "name",
      "outputs": [
        {
          "internalType": "string",
          "name": "",
          "type": "string"
        }
      ],
      "payable": false,
      "stateMutability": "view",
      "type": "function"
    },
    {
      "constant": true,
      "inputs": [],
      "name": "proposalCount",
      "outputs": [
        {
          "internalType": "uint256",
          "name": "",
          "type": "uint256"
        }
      ],
      "payable": false,
      "stateMutability": "view",
      "type": "function"
    },
    {
      "constant": true,
      "inputs": [],
      "name": "proposalThreshold",
      "outputs": [
        {
          "internalType": "uint256",
          "name": "",
          "type": "uint256"
        }
      ],
      "payable": false,
      "stateMutability": "pure",
      "type": "function"
    },
    {
      "constant": true,
      "inputs": [
        {
          "internalType": "uint256",
          "name": "",
          "type": "uint256"
        }
      ],
      "name": "proposals",
      "outputs": [
        {
          "internalType": "uint256",
          "name": "id",
          "type": "uint256"
        },
        {
          "internalType": "address",
          "name": "proposer",
          "type": "address"
        },
        {
          "internalType": "uint256",
          "name": "eta",
          "type": "uint256"
        },
        {
          "internalType": "uint256",
          "name": "startBlock",
          "type": "uint256"
        },
        {
          "internalType": "uint256",
          "name": "endBlock",
          "type": "uint256"
        },
        {
          "internalType": "uint256",
          "name": "forVotes",
          "type": "uint256"
        },
        {
          "internalType": "uint256",
          "name": "againstVotes",
          "type": "uint256"
        },
        {
          "internalType": "bool",
          "name": "canceled",
          "type": "bool"
        },
        {
          "internalType": "bool",
          "name": "executed",
          "type": "bool"
        },
        {
          "components": [
            {
              "internalType": "string",
              "name": "title",
              "type": "string"
            },
            {
              "internalType": "string",
              "name": "typeOfAction",
              "type": "string"
            },
            {
              "internalType": "string",
              "name": "neighborhood",
              "type": "string"
            },
            {
              "internalType": "string",
              "name": "personInCharge",
              "type": "string"
            },
            {
              "internalType": "string",
              "name": "description",
              "type": "string"
            },
            {
              "internalType": "uint256",
              "name": "expiration",
              "type": "uint256"
            },
            {
              "internalType": "uint256",
              "name": "budget",
              "type": "uint256"
            },
            {
              "internalType": "uint256",
              "name": "requiredTaroToVote",
              "type": "uint256"
            }
          ],
          "internalType": "struct GovernorAlpha.UserInputFields",
          "name": "userInputFields",
          "type": "tuple"
        }
      ],
      "payable": false,
      "stateMutability": "view",
      "type": "function"
    },
    {
      "constant": false,
      "inputs": [
        {
          "components": [
            {
              "internalType": "string",
              "name": "title",
              "type": "string"
            },
            {
              "internalType": "string",
              "name": "typeOfAction",
              "type": "string"
            },
            {
              "internalType": "string",
              "name": "neighborhood",
              "type": "string"
            },
            {
              "internalType": "string",
              "name": "personInCharge",
              "type": "string"
            },
            {
              "internalType": "string",
              "name": "description",
              "type": "string"
            },
            {
              "internalType": "uint256",
              "name": "expiration",
              "type": "uint256"
            },
            {
              "internalType": "uint256",
              "name": "budget",
              "type": "uint256"
            },
            {
              "internalType": "uint256",
              "name": "requiredTaroToVote",
              "type": "uint256"
            }
          ],
          "internalType": "struct GovernorAlpha.UserInputFields",
          "name": "_userInputFields",
          "type": "tuple"
        }
      ],
      "name": "propose",
      "outputs": [
        {
          "internalType": "uint256",
          "name": "",
          "type": "uint256"
        }
      ],
      "payable": false,
      "stateMutability": "nonpayable",
      "type": "function"
    },
    {
      "constant": true,
      "inputs": [],
      "name": "taro",
      "outputs": [
        {
          "internalType": "contract TaroInterface",
          "name": "",
          "type": "address"
        }
      ],
      "payable": false,
      "stateMutability": "view",
      "type": "function"
    },
    {
      "constant": true,
      "inputs": [],
      "name": "timelock",
      "outputs": [
        {
          "internalType": "contract TimelockInterface",
          "name": "",
          "type": "address"
        }
      ],
      "payable": false,
      "stateMutability": "view",
      "type": "function"
    },
    {
      "constant": true,
      "inputs": [],
      "name": "votingDelay",
      "outputs": [
        {
          "internalType": "uint256",
          "name": "",
          "type": "uint256"
        }
      ],
      "payable": false,
      "stateMutability": "pure",
      "type": "function"
    },
    {
      "constant": true,
      "inputs": [],
      "name": "votingPeriod",
      "outputs": [
        {
          "internalType": "uint256",
          "name": "",
          "type": "uint256"
        }
      ],
      "payable": false,
      "stateMutability": "pure",
      "type": "function"
    }
  ],
  "bytecode": "0x60806040523480156200001157600080fd5b5060405162001d6038038062001d60833981810160405262000037919081019062000119565b826000806101000a81548173ffffffffffffffffffffffffffffffffffffffff021916908373ffffffffffffffffffffffffffffffffffffffff16021790555081600160006101000a81548173ffffffffffffffffffffffffffffffffffffffff021916908373ffffffffffffffffffffffffffffffffffffffff16021790555080600260006101000a81548173ffffffffffffffffffffffffffffffffffffffff021916908373ffffffffffffffffffffffffffffffffffffffff160217905550505050620001bd565b6000815190506200011381620001a3565b92915050565b6000806000606084860312156200012f57600080fd5b60006200013f8682870162000102565b9350506020620001528682870162000102565b9250506040620001658682870162000102565b9150509250925092565b60006200017c8262000183565b9050919050565b600073ffffffffffffffffffffffffffffffffffffffff82169050919050565b620001ae816200016f565b8114620001ba57600080fd5b50565b611b9380620001cd6000396000f3fe608060405234801561001057600080fd5b50600436106100ea5760003560e01c80633932abb11161008c578063b58131b011610066578063b58131b01461026a578063d33219b414610288578063da35c664146102a6578063e23a9a52146102c4576100ea565b80633932abb1146101fe578063452a93201461021c578063ab0fbf161461023a576100ea565b806315373e3d116100c857806315373e3d14610164578063164b3d2f1461018057806317977c61146101b057806337d4e386146101e0576100ea565b8063013cf08b146100ef57806302a251a31461012857806306fdde0314610146575b600080fd5b6101096004803603610104919081019061134f565b6102f4565b60405161011f9a999897969594939291906118be565b60405180910390f35b6101306106d5565b60405161013d91906118a3565b60405180910390f35b61014e6106df565b60405161015b9190611806565b60405180910390f35b61017e600480360361017991908101906113b4565b610718565b005b61019a6004803603610195919081019061134f565b610727565b6040516101a791906117b5565b60405180910390f35b6101ca60048036036101c591908101906112e5565b610747565b6040516101d791906118a3565b60405180910390f35b6101e861075f565b6040516101f591906117d0565b60405180910390f35b610206610785565b60405161021391906118a3565b60405180910390f35b61022461078e565b604051610231919061172c565b60405180910390f35b610254600480360361024f919081019061130e565b6107b4565b60405161026191906118a3565b60405180910390f35b610272610a76565b60405161027f91906118a3565b60405180910390f35b610290610a88565b60405161029d91906117eb565b60405180910390f35b6102ae610aad565b6040516102bb91906118a3565b60405180910390f35b6102de60048036036102d99190810190611378565b610ab3565b6040516102eb9190611888565b60405180910390f35b60046020528060005260406000206000915090508060000154908060010160009054906101000a900473ffffffffffffffffffffffffffffffffffffffff16908060020154908060030154908060040154908060050154908060060154908060070160009054906101000a900460ff16908060070160019054906101000a900460ff16908060080160405180610100016040529081600082018054600181600116156101000203166002900480601f0160208091040260200160405190810160405280929190818152602001828054600181600116156101000203166002900480156104215780601f106103f657610100808354040283529160200191610421565b820191906000526020600020905b81548152906001019060200180831161040457829003601f168201915b50505050508152602001600182018054600181600116156101000203166002900480601f0160208091040260200160405190810160405280929190818152602001828054600181600116156101000203166002900480156104c35780601f10610498576101008083540402835291602001916104c3565b820191906000526020600020905b8154815290600101906020018083116104a657829003601f168201915b50505050508152602001600282018054600181600116156101000203166002900480601f0160208091040260200160405190810160405280929190818152602001828054600181600116156101000203166002900480156105655780601f1061053a57610100808354040283529160200191610565565b820191906000526020600020905b81548152906001019060200180831161054857829003601f168201915b50505050508152602001600382018054600181600116156101000203166002900480601f0160208091040260200160405190810160405280929190818152602001828054600181600116156101000203166002900480156106075780601f106105dc57610100808354040283529160200191610607565b820191906000526020600020905b8154815290600101906020018083116105ea57829003601f168201915b50505050508152602001600482018054600181600116156101000203166002900480601f0160208091040260200160405190810160405280929190818152602001828054600181600116156101000203166002900480156106a95780601f1061067e576101008083540402835291602001916106a9565b820191906000526020600020905b81548152906001019060200180831161068c57829003601f168201915b50505050508152602001600582015481526020016006820154815260200160078201548152505090508a565b6000614380905090565b6040518060400160405280601581526020017f566f5461726f20476f7665726e6f7220416c706861000000000000000000000081525081565b610723338383610b95565b5050565b60066020528060005260406000206000915054906101000a900460ff1681565b60056020528060005260406000206000915090505481565b600160009054906101000a900473ffffffffffffffffffffffffffffffffffffffff1681565b60006001905090565b600260009054906101000a900473ffffffffffffffffffffffffffffffffffffffff1681565b6000806107c8436107c3610785565b610f1a565b905060006107dd826107d86106d5565b610f1a565b90506003600081548092919060010191905055506107f9610f6f565b60405180610140016040528060035481526020013373ffffffffffffffffffffffffffffffffffffffff1681526020016000815260200184815260200183815260200160008152602001600081526020016000151581526020016000151581526020018681525090508060046000836000015181526020019081526020016000206000820151816000015560208201518160010160006101000a81548173ffffffffffffffffffffffffffffffffffffffff021916908373ffffffffffffffffffffffffffffffffffffffff16021790555060408201518160020155606082015181600301556080820151816004015560a0820151816005015560c0820151816006015560e08201518160070160006101000a81548160ff0219169083151502179055506101008201518160070160016101000a81548160ff021916908315150217905550610120820151816008016000820151816000019080519060200190610964929190610fe2565b506020820151816001019080519060200190610981929190610fe2565b50604082015181600201908051906020019061099e929190610fe2565b5060608201518160030190805190602001906109bb929190610fe2565b5060808201518160040190805190602001906109d8929190610fe2565b5060a0820151816005015560c0820151816006015560e0820151816007015550509050506001600660008360000151815260200190815260200160002060006101000a81548160ff0219169083151502179055507fc2c021f5d73c63c481d336fbbafec58f694fc45095f00b02d2deb8cca59afe078160000151604051610a5f91906118a3565b60405180910390a180600001519350505050919050565b600069152d02c7e14af6800000905090565b6000809054906101000a900473ffffffffffffffffffffffffffffffffffffffff1681565b60035481565b610abb611062565b6004600084815260200190815260200160002060100160008373ffffffffffffffffffffffffffffffffffffffff1673ffffffffffffffffffffffffffffffffffffffff1681526020019081526020016000206040518060600160405290816000820160009054906101000a900460ff161515151581526020016000820160019054906101000a900460ff161515151581526020016000820160029054906101000a90046bffffffffffffffffffffffff166bffffffffffffffffffffffff166bffffffffffffffffffffffff1681525050905092915050565b6000600160009054906101000a900473ffffffffffffffffffffffffffffffffffffffff1673ffffffffffffffffffffffffffffffffffffffff1663b4b5ea57856040518263ffffffff1660e01b8152600401610bf2919061172c565b60206040518083038186803b158015610c0a57600080fd5b505afa158015610c1e573d6000803e3d6000fd5b505050506040513d601f19601f82011682018060405250610c4291908101906113f0565b9050600115156006600085815260200190815260200160002060009054906101000a900460ff16151514610cab576040517f08c379a0000000000000000000000000000000000000000000000000000000008152600401610ca290611868565b60405180910390fd5b600060046000858152602001908152602001600020905060008160100160008773ffffffffffffffffffffffffffffffffffffffff1673ffffffffffffffffffffffffffffffffffffffff1681526020019081526020016000209050600015158160000160009054906101000a900460ff16151514610d5f576040517f08c379a0000000000000000000000000000000000000000000000000000000008152600401610d5690611828565b60405180910390fd5b6000600160009054906101000a900473ffffffffffffffffffffffffffffffffffffffff1673ffffffffffffffffffffffffffffffffffffffff1663782d6fe18885600301546040518363ffffffff1660e01b8152600401610dc2929190611747565b60206040518083038186803b158015610dda57600080fd5b505afa158015610dee573d6000803e3d6000fd5b505050506040513d601f19601f82011682018060405250610e1291908101906113f0565b90508415610e4357610e368360050154826bffffffffffffffffffffffff16610f1a565b8360050181905550610e68565b610e5f8360060154826bffffffffffffffffffffffff16610f1a565b83600601819055505b60018260000160006101000a81548160ff021916908315150217905550848260000160016101000a81548160ff021916908315150217905550808260000160026101000a8154816bffffffffffffffffffffffff02191690836bffffffffffffffffffffffff1602179055507f877856338e13f63d0c36822ff0ef736b80934cd90574a3a5bc9262c39d217c4687878784604051610f099493929190611770565b60405180910390a150505050505050565b600080828401905083811015610f65576040517f08c379a0000000000000000000000000000000000000000000000000000000008152600401610f5c90611848565b60405180910390fd5b8091505092915050565b60405180610140016040528060008152602001600073ffffffffffffffffffffffffffffffffffffffff1681526020016000815260200160008152602001600081526020016000815260200160008152602001600015158152602001600015158152602001610fdc611095565b81525090565b828054600181600116156101000203166002900490600052602060002090601f016020900481019282601f1061102357805160ff1916838001178555611051565b82800160010185558215611051579182015b82811115611050578251825591602001919060010190611035565b5b50905061105e91906110da565b5090565b604051806060016040528060001515815260200160001515815260200160006bffffffffffffffffffffffff1681525090565b60405180610100016040528060608152602001606081526020016060815260200160608152602001606081526020016000815260200160008152602001600081525090565b6110fc91905b808211156110f85760008160009055506001016110e0565b5090565b90565b60008135905061110e81611af4565b92915050565b60008135905061112381611b0b565b92915050565b600082601f83011261113a57600080fd5b813561114d6111488261198e565b611961565b9150808252602083016020830185838301111561116957600080fd5b611174838284611aa1565b50505092915050565b6000610100828403121561119057600080fd5b61119b610100611961565b9050600082013567ffffffffffffffff8111156111b757600080fd5b6111c384828501611129565b600083015250602082013567ffffffffffffffff8111156111e357600080fd5b6111ef84828501611129565b602083015250604082013567ffffffffffffffff81111561120f57600080fd5b61121b84828501611129565b604083015250606082013567ffffffffffffffff81111561123b57600080fd5b61124784828501611129565b606083015250608082013567ffffffffffffffff81111561126757600080fd5b61127384828501611129565b60808301525060a0611287848285016112bb565b60a08301525060c061129b848285016112bb565b60c08301525060e06112af848285016112bb565b60e08301525092915050565b6000813590506112ca81611b22565b92915050565b6000815190506112df81611b39565b92915050565b6000602082840312156112f757600080fd5b6000611305848285016110ff565b91505092915050565b60006020828403121561132057600080fd5b600082013567ffffffffffffffff81111561133a57600080fd5b6113468482850161117d565b91505092915050565b60006020828403121561136157600080fd5b600061136f848285016112bb565b91505092915050565b6000806040838503121561138b57600080fd5b6000611399858286016112bb565b92505060206113aa858286016110ff565b9150509250929050565b600080604083850312156113c757600080fd5b60006113d5858286016112bb565b92505060206113e685828601611114565b9150509250929050565b60006020828403121561140257600080fd5b6000611410848285016112d0565b91505092915050565b611422816119e7565b82525050565b611431816119f9565b82525050565b611440816119f9565b82525050565b61144f81611a47565b82525050565b61145e81611a6b565b82525050565b600061146f826119ba565b61147981856119c5565b9350611489818560208601611ab0565b61149281611ae3565b840191505092915050565b60006114a8826119ba565b6114b281856119d6565b93506114c2818560208601611ab0565b6114cb81611ae3565b840191505092915050565b60006114e3602d836119d6565b91507f476f7665726e6f72416c7068613a3a5f63617374566f74653a20766f7465722060008301527f616c726561647920766f746564000000000000000000000000000000000000006020830152604082019050919050565b60006115496011836119d6565b91507f6164646974696f6e206f766572666c6f770000000000000000000000000000006000830152602082019050919050565b6000611589602a836119d6565b91507f476f7665726e6f72416c7068613a3a5f63617374566f74653a20766f74696e6760008301527f20697320636c6f736564000000000000000000000000000000000000000000006020830152604082019050919050565b6060820160008201516115f86000850182611428565b50602082015161160b6020850182611428565b50604082015161161e604085018261171d565b50505050565b60006101008301600083015184820360008601526116428282611464565b9150506020830151848203602086015261165c8282611464565b915050604083015184820360408601526116768282611464565b915050606083015184820360608601526116908282611464565b915050608083015184820360808601526116aa8282611464565b91505060a08301516116bf60a08601826116f0565b5060c08301516116d260c08601826116f0565b5060e08301516116e560e08601826116f0565b508091505092915050565b6116f981611a25565b82525050565b61170881611a25565b82525050565b61171781611a8f565b82525050565b61172681611a2f565b82525050565b60006020820190506117416000830184611419565b92915050565b600060408201905061175c6000830185611419565b61176960208301846116ff565b9392505050565b60006080820190506117856000830187611419565b61179260208301866116ff565b61179f6040830185611437565b6117ac606083018461170e565b95945050505050565b60006020820190506117ca6000830184611437565b92915050565b60006020820190506117e56000830184611446565b92915050565b60006020820190506118006000830184611455565b92915050565b60006020820190508181036000830152611820818461149d565b905092915050565b60006020820190508181036000830152611841816114d6565b9050919050565b600060208201905081810360008301526118618161153c565b9050919050565b600060208201905081810360008301526118818161157c565b9050919050565b600060608201905061189d60008301846115e2565b92915050565b60006020820190506118b860008301846116ff565b92915050565b6000610140820190506118d4600083018d6116ff565b6118e1602083018c611419565b6118ee604083018b6116ff565b6118fb606083018a6116ff565b61190860808301896116ff565b61191560a08301886116ff565b61192260c08301876116ff565b61192f60e0830186611437565b61193d610100830185611437565b8181036101208301526119508184611624565b90509b9a5050505050505050505050565b6000604051905081810181811067ffffffffffffffff8211171561198457600080fd5b8060405250919050565b600067ffffffffffffffff8211156119a557600080fd5b601f19601f8301169050602081019050919050565b600081519050919050565b600082825260208201905092915050565b600082825260208201905092915050565b60006119f282611a05565b9050919050565b60008115159050919050565b600073ffffffffffffffffffffffffffffffffffffffff82169050919050565b6000819050919050565b60006bffffffffffffffffffffffff82169050919050565b6000611a5282611a59565b9050919050565b6000611a6482611a05565b9050919050565b6000611a7682611a7d565b9050919050565b6000611a8882611a05565b9050919050565b6000611a9a82611a2f565b9050919050565b82818337600083830152505050565b60005b83811015611ace578082015181840152602081019050611ab3565b83811115611add576000848401525b50505050565b6000601f19601f8301169050919050565b611afd816119e7565b8114611b0857600080fd5b50565b611b14816119f9565b8114611b1f57600080fd5b50565b611b2b81611a25565b8114611b3657600080fd5b50565b611b4281611a2f565b8114611b4d57600080fd5b5056fea365627a7a72315820edf6c6f13b20ced1b3241c9812f166a9ece9641ebdb1df16af6edd25b053b4df6c6578706572696d656e74616cf564736f6c63430005100040",
  "linkReferences": {},
  "deployedLinkReferences": {}
}