{
  "_format": "hh-sol-artifact-1",
  "contractName": "GovernorAlpha",
  "sourceName": "contracts/GovernorAlpha.sol",
  "abi": [
    {
      "inputs": [
        {
          "internalType": "address",
          "name": "timelock_",
          "type": "address"
        },
        {
          "internalType": "address",
          "name": "taro_",
          "type": "address"
        },
        {
          "internalType": "address",
          "name": "guardian_",
          "type": "address"
        }
      ],
      "payable": false,
      "stateMutability": "nonpayable",
      "type": "constructor"
    },
    {
      "anonymous": false,
      "inputs": [
        {
          "indexed": false,
          "internalType": "uint256",
          "name": "id",
          "type": "uint256"
        }
      ],
      "name": "ProposalCreated",
      "type": "event"
    },
    {
      "anonymous": false,
      "inputs": [
        {
          "indexed": false,
          "internalType": "address",
          "name": "voter",
          "type": "address"
        },
        {
          "indexed": false,
          "internalType": "uint256",
          "name": "proposalId",
          "type": "uint256"
        },
        {
          "indexed": false,
          "internalType": "bool",
          "name": "support",
          "type": "bool"
        },
        {
          "indexed": false,
          "internalType": "uint256",
          "name": "votes",
          "type": "uint256"
        }
      ],
      "name": "VoteCast",
      "type": "event"
    },
    {
      "constant": false,
      "inputs": [
        {
          "internalType": "uint256",
          "name": "proposalId",
          "type": "uint256"
        },
        {
          "internalType": "bool",
          "name": "support",
          "type": "bool"
        }
      ],
      "name": "castVote",
      "outputs": [],
      "payable": false,
      "stateMutability": "nonpayable",
      "type": "function"
    },
    {
      "constant": true,
      "inputs": [
        {
          "internalType": "uint256",
          "name": "proposalId",
          "type": "uint256"
        },
        {
          "internalType": "address",
          "name": "voter",
          "type": "address"
        }
      ],
      "name": "getReceipt",
      "outputs": [
        {
          "components": [
            {
              "internalType": "bool",
              "name": "hasVoted",
              "type": "bool"
            },
            {
              "internalType": "bool",
              "name": "support",
              "type": "bool"
            },
            {
              "internalType": "uint96",
              "name": "votes",
              "type": "uint96"
            }
          ],
          "internalType": "struct GovernorAlpha.Receipt",
          "name": "",
          "type": "tuple"
        }
      ],
      "payable": false,
      "stateMutability": "view",
      "type": "function"
    },
    {
      "constant": true,
      "inputs": [],
      "name": "guardian",
      "outputs": [
        {
          "internalType": "address",
          "name": "",
          "type": "address"
        }
      ],
      "payable": false,
      "stateMutability": "view",
      "type": "function"
    },
    {
      "constant": true,
      "inputs": [
        {
          "internalType": "uint256",
          "name": "",
          "type": "uint256"
        }
      ],
      "name": "isProposalActive",
      "outputs": [
        {
          "internalType": "bool",
          "name": "",
          "type": "bool"
        }
      ],
      "payable": false,
      "stateMutability": "view",
      "type": "function"
    },
    {
      "constant": true,
      "inputs": [
        {
          "internalType": "address",
          "name": "",
          "type": "address"
        }
      ],
      "name": "latestProposalIds",
      "outputs": [
        {
          "internalType": "uint256",
          "name": "",
          "type": "uint256"
        }
      ],
      "payable": false,
      "stateMutability": "view",
      "type": "function"
    },
    {
      "constant": true,
      "inputs": [],
      "name": "name",
      "outputs": [
        {
          "internalType": "string",
          "name": "",
          "type": "string"
        }
      ],
      "payable": false,
      "stateMutability": "view",
      "type": "function"
    },
    {
      "constant": true,
      "inputs": [],
      "name": "proposalCount",
      "outputs": [
        {
          "internalType": "uint256",
          "name": "",
          "type": "uint256"
        }
      ],
      "payable": false,
      "stateMutability": "view",
      "type": "function"
    },
    {
      "constant": true,
      "inputs": [],
      "name": "proposalThreshold",
      "outputs": [
        {
          "internalType": "uint256",
          "name": "",
          "type": "uint256"
        }
      ],
      "payable": false,
      "stateMutability": "pure",
      "type": "function"
    },
    {
      "constant": true,
      "inputs": [
        {
          "internalType": "uint256",
          "name": "",
          "type": "uint256"
        }
      ],
      "name": "proposals",
      "outputs": [
        {
          "internalType": "uint256",
          "name": "id",
          "type": "uint256"
        },
        {
          "internalType": "address",
          "name": "proposer",
          "type": "address"
        },
        {
          "internalType": "uint256",
          "name": "eta",
          "type": "uint256"
        },
        {
          "internalType": "uint256",
          "name": "startBlock",
          "type": "uint256"
        },
        {
          "internalType": "uint256",
          "name": "endBlock",
          "type": "uint256"
        },
        {
          "internalType": "uint256",
          "name": "forVotes",
          "type": "uint256"
        },
        {
          "internalType": "uint256",
          "name": "againstVotes",
          "type": "uint256"
        },
        {
          "internalType": "bool",
          "name": "canceled",
          "type": "bool"
        },
        {
          "internalType": "bool",
          "name": "executed",
          "type": "bool"
        },
        {
          "components": [
            {
              "internalType": "string",
              "name": "title",
              "type": "string"
            },
            {
              "internalType": "string",
              "name": "typeOfAction",
              "type": "string"
            },
            {
              "internalType": "string",
              "name": "neighborhood",
              "type": "string"
            },
            {
              "internalType": "string",
              "name": "personInCharge",
              "type": "string"
            },
            {
              "internalType": "string",
              "name": "description",
              "type": "string"
            },
            {
              "internalType": "uint256",
              "name": "expiration",
              "type": "uint256"
            },
            {
              "internalType": "uint256",
              "name": "budget",
              "type": "uint256"
            },
            {
              "internalType": "uint256",
              "name": "requiredTaroToVote",
              "type": "uint256"
            }
          ],
          "internalType": "struct GovernorAlpha.UserInputFields",
          "name": "userInputFields",
          "type": "tuple"
        }
      ],
      "payable": false,
      "stateMutability": "view",
      "type": "function"
    },
    {
      "constant": false,
      "inputs": [
        {
          "components": [
            {
              "internalType": "string",
              "name": "title",
              "type": "string"
            },
            {
              "internalType": "string",
              "name": "typeOfAction",
              "type": "string"
            },
            {
              "internalType": "string",
              "name": "neighborhood",
              "type": "string"
            },
            {
              "internalType": "string",
              "name": "personInCharge",
              "type": "string"
            },
            {
              "internalType": "string",
              "name": "description",
              "type": "string"
            },
            {
              "internalType": "uint256",
              "name": "expiration",
              "type": "uint256"
            },
            {
              "internalType": "uint256",
              "name": "budget",
              "type": "uint256"
            },
            {
              "internalType": "uint256",
              "name": "requiredTaroToVote",
              "type": "uint256"
            }
          ],
          "internalType": "struct GovernorAlpha.UserInputFields",
          "name": "_userInputFields",
          "type": "tuple"
        }
      ],
      "name": "propose",
      "outputs": [
        {
          "internalType": "uint256",
          "name": "",
          "type": "uint256"
        }
      ],
      "payable": false,
      "stateMutability": "nonpayable",
      "type": "function"
    },
    {
      "constant": true,
      "inputs": [],
      "name": "taro",
      "outputs": [
        {
          "internalType": "contract TaroInterface",
          "name": "",
          "type": "address"
        }
      ],
      "payable": false,
      "stateMutability": "view",
      "type": "function"
    },
    {
      "constant": true,
      "inputs": [],
      "name": "timelock",
      "outputs": [
        {
          "internalType": "contract TimelockInterface",
          "name": "",
          "type": "address"
        }
      ],
      "payable": false,
      "stateMutability": "view",
      "type": "function"
    },
    {
      "constant": true,
      "inputs": [],
      "name": "votingDelay",
      "outputs": [
        {
          "internalType": "uint256",
          "name": "",
          "type": "uint256"
        }
      ],
      "payable": false,
      "stateMutability": "pure",
      "type": "function"
    },
    {
      "constant": true,
      "inputs": [],
      "name": "votingPeriod",
      "outputs": [
        {
          "internalType": "uint256",
          "name": "",
          "type": "uint256"
        }
      ],
      "payable": false,
      "stateMutability": "pure",
      "type": "function"
    }
  ],
  "bytecode": "0x60806040523480156200001157600080fd5b5060405162001cb038038062001cb0833981810160405262000037919081019062000119565b826000806101000a81548173ffffffffffffffffffffffffffffffffffffffff021916908373ffffffffffffffffffffffffffffffffffffffff16021790555081600160006101000a81548173ffffffffffffffffffffffffffffffffffffffff021916908373ffffffffffffffffffffffffffffffffffffffff16021790555080600260006101000a81548173ffffffffffffffffffffffffffffffffffffffff021916908373ffffffffffffffffffffffffffffffffffffffff160217905550505050620001bd565b6000815190506200011381620001a3565b92915050565b6000806000606084860312156200012f57600080fd5b60006200013f8682870162000102565b9350506020620001528682870162000102565b9250506040620001658682870162000102565b9150509250925092565b60006200017c8262000183565b9050919050565b600073ffffffffffffffffffffffffffffffffffffffff82169050919050565b620001ae816200016f565b8114620001ba57600080fd5b50565b611ae380620001cd6000396000f3fe608060405234801561001057600080fd5b50600436106100ea5760003560e01c80633932abb11161008c578063b58131b011610066578063b58131b01461026a578063d33219b414610288578063da35c664146102a6578063e23a9a52146102c4576100ea565b80633932abb1146101fe578063452a93201461021c578063ab0fbf161461023a576100ea565b806315373e3d116100c857806315373e3d14610164578063164b3d2f1461018057806317977c61146101b057806337d4e386146101e0576100ea565b8063013cf08b146100ef57806302a251a31461012857806306fdde0314610146575b600080fd5b6101096004803603610104919081019061129f565b6102f4565b60405161011f9a9998979695949392919061180e565b60405180910390f35b6101306106d5565b60405161013d91906117f3565b60405180910390f35b61014e6106df565b60405161015b9190611756565b60405180910390f35b61017e60048036036101799190810190611304565b610718565b005b61019a6004803603610195919081019061129f565b610727565b6040516101a79190611705565b60405180910390f35b6101ca60048036036101c59190810190611235565b610747565b6040516101d791906117f3565b60405180910390f35b6101e861075f565b6040516101f59190611720565b60405180910390f35b610206610785565b60405161021391906117f3565b60405180910390f35b61022461078e565b604051610231919061167c565b60405180910390f35b610254600480360361024f919081019061125e565b6107b4565b60405161026191906117f3565b60405180910390f35b610272610a76565b60405161027f91906117f3565b60405180910390f35b610290610a88565b60405161029d919061173b565b60405180910390f35b6102ae610aad565b6040516102bb91906117f3565b60405180910390f35b6102de60048036036102d991908101906112c8565b610ab3565b6040516102eb91906117d8565b60405180910390f35b60046020528060005260406000206000915090508060000154908060010160009054906101000a900473ffffffffffffffffffffffffffffffffffffffff16908060020154908060030154908060040154908060050154908060060154908060070160009054906101000a900460ff16908060070160019054906101000a900460ff16908060080160405180610100016040529081600082018054600181600116156101000203166002900480601f0160208091040260200160405190810160405280929190818152602001828054600181600116156101000203166002900480156104215780601f106103f657610100808354040283529160200191610421565b820191906000526020600020905b81548152906001019060200180831161040457829003601f168201915b50505050508152602001600182018054600181600116156101000203166002900480601f0160208091040260200160405190810160405280929190818152602001828054600181600116156101000203166002900480156104c35780601f10610498576101008083540402835291602001916104c3565b820191906000526020600020905b8154815290600101906020018083116104a657829003601f168201915b50505050508152602001600282018054600181600116156101000203166002900480601f0160208091040260200160405190810160405280929190818152602001828054600181600116156101000203166002900480156105655780601f1061053a57610100808354040283529160200191610565565b820191906000526020600020905b81548152906001019060200180831161054857829003601f168201915b50505050508152602001600382018054600181600116156101000203166002900480601f0160208091040260200160405190810160405280929190818152602001828054600181600116156101000203166002900480156106075780601f106105dc57610100808354040283529160200191610607565b820191906000526020600020905b8154815290600101906020018083116105ea57829003601f168201915b50505050508152602001600482018054600181600116156101000203166002900480601f0160208091040260200160405190810160405280929190818152602001828054600181600116156101000203166002900480156106a95780601f1061067e576101008083540402835291602001916106a9565b820191906000526020600020905b81548152906001019060200180831161068c57829003601f168201915b50505050508152602001600582015481526020016006820154815260200160078201548152505090508a565b6000614380905090565b6040518060400160405280601581526020017f566f5461726f20476f7665726e6f7220416c706861000000000000000000000081525081565b610723338383610b95565b5050565b60066020528060005260406000206000915054906101000a900460ff1681565b60056020528060005260406000206000915090505481565b600160009054906101000a900473ffffffffffffffffffffffffffffffffffffffff1681565b60006001905090565b600260009054906101000a900473ffffffffffffffffffffffffffffffffffffffff1681565b6000806107c8436107c3610785565b610e6a565b905060006107dd826107d86106d5565b610e6a565b90506003600081548092919060010191905055506107f9610ebf565b60405180610140016040528060035481526020013373ffffffffffffffffffffffffffffffffffffffff1681526020016000815260200184815260200183815260200160008152602001600081526020016000151581526020016000151581526020018681525090508060046000836000015181526020019081526020016000206000820151816000015560208201518160010160006101000a81548173ffffffffffffffffffffffffffffffffffffffff021916908373ffffffffffffffffffffffffffffffffffffffff16021790555060408201518160020155606082015181600301556080820151816004015560a0820151816005015560c0820151816006015560e08201518160070160006101000a81548160ff0219169083151502179055506101008201518160070160016101000a81548160ff021916908315150217905550610120820151816008016000820151816000019080519060200190610964929190610f32565b506020820151816001019080519060200190610981929190610f32565b50604082015181600201908051906020019061099e929190610f32565b5060608201518160030190805190602001906109bb929190610f32565b5060808201518160040190805190602001906109d8929190610f32565b5060a0820151816005015560c0820151816006015560e0820151816007015550509050506001600660008360000151815260200190815260200160002060006101000a81548160ff0219169083151502179055507fc2c021f5d73c63c481d336fbbafec58f694fc45095f00b02d2deb8cca59afe078160000151604051610a5f91906117f3565b60405180910390a180600001519350505050919050565b600069152d02c7e14af6800000905090565b6000809054906101000a900473ffffffffffffffffffffffffffffffffffffffff1681565b60035481565b610abb610fb2565b6004600084815260200190815260200160002060100160008373ffffffffffffffffffffffffffffffffffffffff1673ffffffffffffffffffffffffffffffffffffffff1681526020019081526020016000206040518060600160405290816000820160009054906101000a900460ff161515151581526020016000820160019054906101000a900460ff161515151581526020016000820160029054906101000a90046bffffffffffffffffffffffff166bffffffffffffffffffffffff166bffffffffffffffffffffffff1681525050905092915050565b600115156006600084815260200190815260200160002060009054906101000a900460ff16151514610bfc576040517f08c379a0000000000000000000000000000000000000000000000000000000008152600401610bf3906117b8565b60405180910390fd5b600060046000848152602001908152602001600020905060008160100160008673ffffffffffffffffffffffffffffffffffffffff1673ffffffffffffffffffffffffffffffffffffffff1681526020019081526020016000209050600015158160000160009054906101000a900460ff16151514610cb0576040517f08c379a0000000000000000000000000000000000000000000000000000000008152600401610ca790611778565b60405180910390fd5b6000600160009054906101000a900473ffffffffffffffffffffffffffffffffffffffff1673ffffffffffffffffffffffffffffffffffffffff1663782d6fe18785600301546040518363ffffffff1660e01b8152600401610d13929190611697565b60206040518083038186803b158015610d2b57600080fd5b505afa158015610d3f573d6000803e3d6000fd5b505050506040513d601f19601f82011682018060405250610d639190810190611340565b90508315610d9457610d878360050154826bffffffffffffffffffffffff16610e6a565b8360050181905550610db9565b610db08360060154826bffffffffffffffffffffffff16610e6a565b83600601819055505b60018260000160006101000a81548160ff021916908315150217905550838260000160016101000a81548160ff021916908315150217905550808260000160026101000a8154816bffffffffffffffffffffffff02191690836bffffffffffffffffffffffff1602179055507f877856338e13f63d0c36822ff0ef736b80934cd90574a3a5bc9262c39d217c4686868684604051610e5a94939291906116c0565b60405180910390a1505050505050565b600080828401905083811015610eb5576040517f08c379a0000000000000000000000000000000000000000000000000000000008152600401610eac90611798565b60405180910390fd5b8091505092915050565b60405180610140016040528060008152602001600073ffffffffffffffffffffffffffffffffffffffff1681526020016000815260200160008152602001600081526020016000815260200160008152602001600015158152602001600015158152602001610f2c610fe5565b81525090565b828054600181600116156101000203166002900490600052602060002090601f016020900481019282601f10610f7357805160ff1916838001178555610fa1565b82800160010185558215610fa1579182015b82811115610fa0578251825591602001919060010190610f85565b5b509050610fae919061102a565b5090565b604051806060016040528060001515815260200160001515815260200160006bffffffffffffffffffffffff1681525090565b60405180610100016040528060608152602001606081526020016060815260200160608152602001606081526020016000815260200160008152602001600081525090565b61104c91905b80821115611048576000816000905550600101611030565b5090565b90565b60008135905061105e81611a44565b92915050565b60008135905061107381611a5b565b92915050565b600082601f83011261108a57600080fd5b813561109d611098826118de565b6118b1565b915080825260208301602083018583830111156110b957600080fd5b6110c48382846119f1565b50505092915050565b600061010082840312156110e057600080fd5b6110eb6101006118b1565b9050600082013567ffffffffffffffff81111561110757600080fd5b61111384828501611079565b600083015250602082013567ffffffffffffffff81111561113357600080fd5b61113f84828501611079565b602083015250604082013567ffffffffffffffff81111561115f57600080fd5b61116b84828501611079565b604083015250606082013567ffffffffffffffff81111561118b57600080fd5b61119784828501611079565b606083015250608082013567ffffffffffffffff8111156111b757600080fd5b6111c384828501611079565b60808301525060a06111d78482850161120b565b60a08301525060c06111eb8482850161120b565b60c08301525060e06111ff8482850161120b565b60e08301525092915050565b60008135905061121a81611a72565b92915050565b60008151905061122f81611a89565b92915050565b60006020828403121561124757600080fd5b60006112558482850161104f565b91505092915050565b60006020828403121561127057600080fd5b600082013567ffffffffffffffff81111561128a57600080fd5b611296848285016110cd565b91505092915050565b6000602082840312156112b157600080fd5b60006112bf8482850161120b565b91505092915050565b600080604083850312156112db57600080fd5b60006112e98582860161120b565b92505060206112fa8582860161104f565b9150509250929050565b6000806040838503121561131757600080fd5b60006113258582860161120b565b925050602061133685828601611064565b9150509250929050565b60006020828403121561135257600080fd5b600061136084828501611220565b91505092915050565b61137281611937565b82525050565b61138181611949565b82525050565b61139081611949565b82525050565b61139f81611997565b82525050565b6113ae816119bb565b82525050565b60006113bf8261190a565b6113c98185611915565b93506113d9818560208601611a00565b6113e281611a33565b840191505092915050565b60006113f88261190a565b6114028185611926565b9350611412818560208601611a00565b61141b81611a33565b840191505092915050565b6000611433602d83611926565b91507f476f7665726e6f72416c7068613a3a5f63617374566f74653a20766f7465722060008301527f616c726561647920766f746564000000000000000000000000000000000000006020830152604082019050919050565b6000611499601183611926565b91507f6164646974696f6e206f766572666c6f770000000000000000000000000000006000830152602082019050919050565b60006114d9602a83611926565b91507f476f7665726e6f72416c7068613a3a5f63617374566f74653a20766f74696e6760008301527f20697320636c6f736564000000000000000000000000000000000000000000006020830152604082019050919050565b6060820160008201516115486000850182611378565b50602082015161155b6020850182611378565b50604082015161156e604085018261166d565b50505050565b600061010083016000830151848203600086015261159282826113b4565b915050602083015184820360208601526115ac82826113b4565b915050604083015184820360408601526115c682826113b4565b915050606083015184820360608601526115e082826113b4565b915050608083015184820360808601526115fa82826113b4565b91505060a083015161160f60a0860182611640565b5060c083015161162260c0860182611640565b5060e083015161163560e0860182611640565b508091505092915050565b61164981611975565b82525050565b61165881611975565b82525050565b611667816119df565b82525050565b6116768161197f565b82525050565b60006020820190506116916000830184611369565b92915050565b60006040820190506116ac6000830185611369565b6116b9602083018461164f565b9392505050565b60006080820190506116d56000830187611369565b6116e2602083018661164f565b6116ef6040830185611387565b6116fc606083018461165e565b95945050505050565b600060208201905061171a6000830184611387565b92915050565b60006020820190506117356000830184611396565b92915050565b600060208201905061175060008301846113a5565b92915050565b6000602082019050818103600083015261177081846113ed565b905092915050565b6000602082019050818103600083015261179181611426565b9050919050565b600060208201905081810360008301526117b18161148c565b9050919050565b600060208201905081810360008301526117d1816114cc565b9050919050565b60006060820190506117ed6000830184611532565b92915050565b6000602082019050611808600083018461164f565b92915050565b600061014082019050611824600083018d61164f565b611831602083018c611369565b61183e604083018b61164f565b61184b606083018a61164f565b611858608083018961164f565b61186560a083018861164f565b61187260c083018761164f565b61187f60e0830186611387565b61188d610100830185611387565b8181036101208301526118a08184611574565b90509b9a5050505050505050505050565b6000604051905081810181811067ffffffffffffffff821117156118d457600080fd5b8060405250919050565b600067ffffffffffffffff8211156118f557600080fd5b601f19601f8301169050602081019050919050565b600081519050919050565b600082825260208201905092915050565b600082825260208201905092915050565b600061194282611955565b9050919050565b60008115159050919050565b600073ffffffffffffffffffffffffffffffffffffffff82169050919050565b6000819050919050565b60006bffffffffffffffffffffffff82169050919050565b60006119a2826119a9565b9050919050565b60006119b482611955565b9050919050565b60006119c6826119cd565b9050919050565b60006119d882611955565b9050919050565b60006119ea8261197f565b9050919050565b82818337600083830152505050565b60005b83811015611a1e578082015181840152602081019050611a03565b83811115611a2d576000848401525b50505050565b6000601f19601f8301169050919050565b611a4d81611937565b8114611a5857600080fd5b50565b611a6481611949565b8114611a6f57600080fd5b50565b611a7b81611975565b8114611a8657600080fd5b50565b611a928161197f565b8114611a9d57600080fd5b5056fea365627a7a72315820bd1e0567f312e17f35d1d2992c8dafeb32d2428096bd979aa350985401a606eb6c6578706572696d656e74616cf564736f6c63430005100040",
  "linkReferences": {},
  "deployedLinkReferences": {}
}