{
  "_format": "hh-sol-artifact-1",
  "contractName": "GovernorAlpha",
  "sourceName": "contracts/GovernorAlpha.sol",
  "abi": [
    {
      "inputs": [
        {
          "internalType": "address",
          "name": "timelock_",
          "type": "address"
        },
        {
          "internalType": "address",
          "name": "taro_",
          "type": "address"
        },
        {
          "internalType": "address",
          "name": "guardian_",
          "type": "address"
        }
      ],
      "payable": false,
      "stateMutability": "nonpayable",
      "type": "constructor"
    },
    {
      "anonymous": false,
      "inputs": [
        {
          "indexed": false,
          "internalType": "uint256",
          "name": "id",
          "type": "uint256"
        }
      ],
      "name": "ProposalCreated",
      "type": "event"
    },
    {
      "anonymous": false,
      "inputs": [
        {
          "indexed": false,
          "internalType": "address",
          "name": "voter",
          "type": "address"
        },
        {
          "indexed": false,
          "internalType": "uint256",
          "name": "proposalId",
          "type": "uint256"
        },
        {
          "indexed": false,
          "internalType": "bool",
          "name": "support",
          "type": "bool"
        },
        {
          "indexed": false,
          "internalType": "uint256",
          "name": "votes",
          "type": "uint256"
        }
      ],
      "name": "VoteCast",
      "type": "event"
    },
    {
      "constant": false,
      "inputs": [
        {
          "internalType": "uint256",
          "name": "proposalId",
          "type": "uint256"
        },
        {
          "internalType": "bool",
          "name": "support",
          "type": "bool"
        }
      ],
      "name": "castVote",
      "outputs": [],
      "payable": false,
      "stateMutability": "nonpayable",
      "type": "function"
    },
    {
      "constant": true,
      "inputs": [
        {
          "internalType": "uint256",
          "name": "proposalId",
          "type": "uint256"
        },
        {
          "internalType": "address",
          "name": "voter",
          "type": "address"
        }
      ],
      "name": "getReceipt",
      "outputs": [
        {
          "components": [
            {
              "internalType": "bool",
              "name": "hasVoted",
              "type": "bool"
            },
            {
              "internalType": "bool",
              "name": "support",
              "type": "bool"
            },
            {
              "internalType": "uint96",
              "name": "votes",
              "type": "uint96"
            }
          ],
          "internalType": "struct GovernorAlpha.Receipt",
          "name": "",
          "type": "tuple"
        }
      ],
      "payable": false,
      "stateMutability": "view",
      "type": "function"
    },
    {
      "constant": true,
      "inputs": [],
      "name": "guardian",
      "outputs": [
        {
          "internalType": "address",
          "name": "",
          "type": "address"
        }
      ],
      "payable": false,
      "stateMutability": "view",
      "type": "function"
    },
    {
      "constant": true,
      "inputs": [
        {
          "internalType": "uint256",
          "name": "",
          "type": "uint256"
        }
      ],
      "name": "isProposalActive",
      "outputs": [
        {
          "internalType": "bool",
          "name": "",
          "type": "bool"
        }
      ],
      "payable": false,
      "stateMutability": "view",
      "type": "function"
    },
    {
      "constant": true,
      "inputs": [
        {
          "internalType": "address",
          "name": "",
          "type": "address"
        }
      ],
      "name": "latestProposalIds",
      "outputs": [
        {
          "internalType": "uint256",
          "name": "",
          "type": "uint256"
        }
      ],
      "payable": false,
      "stateMutability": "view",
      "type": "function"
    },
    {
      "constant": true,
      "inputs": [],
      "name": "name",
      "outputs": [
        {
          "internalType": "string",
          "name": "",
          "type": "string"
        }
      ],
      "payable": false,
      "stateMutability": "view",
      "type": "function"
    },
    {
      "constant": true,
      "inputs": [],
      "name": "proposalCount",
      "outputs": [
        {
          "internalType": "uint256",
          "name": "",
          "type": "uint256"
        }
      ],
      "payable": false,
      "stateMutability": "view",
      "type": "function"
    },
    {
      "constant": true,
      "inputs": [],
      "name": "proposalThreshold",
      "outputs": [
        {
          "internalType": "uint256",
          "name": "",
          "type": "uint256"
        }
      ],
      "payable": false,
      "stateMutability": "pure",
      "type": "function"
    },
    {
      "constant": true,
      "inputs": [
        {
          "internalType": "uint256",
          "name": "",
          "type": "uint256"
        }
      ],
      "name": "proposals",
      "outputs": [
        {
          "internalType": "uint256",
          "name": "id",
          "type": "uint256"
        },
        {
          "internalType": "address",
          "name": "proposer",
          "type": "address"
        },
        {
          "internalType": "uint256",
          "name": "eta",
          "type": "uint256"
        },
        {
          "internalType": "uint256",
          "name": "startBlock",
          "type": "uint256"
        },
        {
          "internalType": "uint256",
          "name": "endBlock",
          "type": "uint256"
        },
        {
          "internalType": "uint256",
          "name": "forVotes",
          "type": "uint256"
        },
        {
          "internalType": "uint256",
          "name": "againstVotes",
          "type": "uint256"
        },
        {
          "internalType": "bool",
          "name": "canceled",
          "type": "bool"
        },
        {
          "internalType": "bool",
          "name": "executed",
          "type": "bool"
        },
        {
          "components": [
            {
              "internalType": "string",
              "name": "title",
              "type": "string"
            },
            {
              "internalType": "string",
              "name": "typeOfAction",
              "type": "string"
            },
            {
              "internalType": "string",
              "name": "neighborhood",
              "type": "string"
            },
            {
              "internalType": "string",
              "name": "personInCharge",
              "type": "string"
            },
            {
              "internalType": "string",
              "name": "description",
              "type": "string"
            },
            {
              "internalType": "uint256",
              "name": "expiration",
              "type": "uint256"
            },
            {
              "internalType": "uint256",
              "name": "budget",
              "type": "uint256"
            },
            {
              "internalType": "uint256",
              "name": "requiredTaroToVote",
              "type": "uint256"
            }
          ],
          "internalType": "struct GovernorAlpha.UserInputFields",
          "name": "userInputFields",
          "type": "tuple"
        }
      ],
      "payable": false,
      "stateMutability": "view",
      "type": "function"
    },
    {
      "constant": false,
      "inputs": [
        {
          "components": [
            {
              "internalType": "string",
              "name": "title",
              "type": "string"
            },
            {
              "internalType": "string",
              "name": "typeOfAction",
              "type": "string"
            },
            {
              "internalType": "string",
              "name": "neighborhood",
              "type": "string"
            },
            {
              "internalType": "string",
              "name": "personInCharge",
              "type": "string"
            },
            {
              "internalType": "string",
              "name": "description",
              "type": "string"
            },
            {
              "internalType": "uint256",
              "name": "expiration",
              "type": "uint256"
            },
            {
              "internalType": "uint256",
              "name": "budget",
              "type": "uint256"
            },
            {
              "internalType": "uint256",
              "name": "requiredTaroToVote",
              "type": "uint256"
            }
          ],
          "internalType": "struct GovernorAlpha.UserInputFields",
          "name": "_userInputFields",
          "type": "tuple"
        }
      ],
      "name": "propose",
      "outputs": [
        {
          "internalType": "uint256",
          "name": "",
          "type": "uint256"
        }
      ],
      "payable": false,
      "stateMutability": "nonpayable",
      "type": "function"
    },
    {
      "constant": true,
      "inputs": [],
      "name": "taro",
      "outputs": [
        {
          "internalType": "contract TaroInterface",
          "name": "",
          "type": "address"
        }
      ],
      "payable": false,
      "stateMutability": "view",
      "type": "function"
    },
    {
      "constant": true,
      "inputs": [],
      "name": "timelock",
      "outputs": [
        {
          "internalType": "contract TimelockInterface",
          "name": "",
          "type": "address"
        }
      ],
      "payable": false,
      "stateMutability": "view",
      "type": "function"
    },
    {
      "constant": false,
      "inputs": [
        {
          "internalType": "uint256",
          "name": "_rewardedTokens",
          "type": "uint256"
        }
      ],
      "name": "validate",
      "outputs": [
        {
          "internalType": "uint256",
          "name": "",
          "type": "uint256"
        }
      ],
      "payable": false,
      "stateMutability": "nonpayable",
      "type": "function"
    },
    {
      "constant": true,
      "inputs": [],
      "name": "votingDelay",
      "outputs": [
        {
          "internalType": "uint256",
          "name": "",
          "type": "uint256"
        }
      ],
      "payable": false,
      "stateMutability": "pure",
      "type": "function"
    },
    {
      "constant": true,
      "inputs": [],
      "name": "votingPeriod",
      "outputs": [
        {
          "internalType": "uint256",
          "name": "",
          "type": "uint256"
        }
      ],
      "payable": false,
      "stateMutability": "pure",
      "type": "function"
    }
  ],
  "bytecode": "0x60806040523480156200001157600080fd5b506040516200222438038062002224833981810160405262000037919081019062000119565b826000806101000a81548173ffffffffffffffffffffffffffffffffffffffff021916908373ffffffffffffffffffffffffffffffffffffffff16021790555081600160006101000a81548173ffffffffffffffffffffffffffffffffffffffff021916908373ffffffffffffffffffffffffffffffffffffffff16021790555080600260006101000a81548173ffffffffffffffffffffffffffffffffffffffff021916908373ffffffffffffffffffffffffffffffffffffffff160217905550505050620001bd565b6000815190506200011381620001a3565b92915050565b6000806000606084860312156200012f57600080fd5b60006200013f8682870162000102565b9350506020620001528682870162000102565b9250506040620001658682870162000102565b9150509250925092565b60006200017c8262000183565b9050919050565b600073ffffffffffffffffffffffffffffffffffffffff82169050919050565b620001ae816200016f565b8114620001ba57600080fd5b50565b61205780620001cd6000396000f3fe608060405234801561001057600080fd5b50600436106100f55760003560e01c80633932abb111610097578063ce4d01a311610066578063ce4d01a314610293578063d33219b4146102c3578063da35c664146102e1578063e23a9a52146102ff576100f5565b80633932abb114610209578063452a932014610227578063ab0fbf1614610245578063b58131b014610275576100f5565b806315373e3d116100d357806315373e3d1461016f578063164b3d2f1461018b57806317977c61146101bb57806337d4e386146101eb576100f5565b8063013cf08b146100fa57806302a251a31461013357806306fdde0314610151575b600080fd5b610114600480360361010f91908101906116b1565b61032f565b60405161012a9a99989796959493929190611d4c565b60405180910390f35b61013b610710565b6040516101489190611d31565b60405180910390f35b61015961071a565b6040516101669190611c54565b60405180910390f35b61018960048036036101849190810190611716565b610753565b005b6101a560048036036101a091908101906116b1565b6107fd565b6040516101b29190611c03565b60405180910390f35b6101d560048036036101d0919081019061161e565b61081d565b6040516101e29190611d31565b60405180910390f35b6101f3610835565b6040516102009190611c1e565b60405180910390f35b61021161085b565b60405161021e9190611d31565b60405180910390f35b61022f610864565b60405161023c9190611b43565b60405180910390f35b61025f600480360361025a9190810190611670565b61088a565b60405161026c9190611d31565b60405180910390f35b61027d610be7565b60405161028a9190611d31565b60405180910390f35b6102ad60048036036102a891908101906116b1565b610bf9565b6040516102ba9190611d31565b60405180910390f35b6102cb610e5c565b6040516102d89190611c39565b60405180910390f35b6102e9610e81565b6040516102f69190611d31565b60405180910390f35b610319600480360361031491908101906116da565b610e87565b6040516103269190611d16565b60405180910390f35b60046020528060005260406000206000915090508060000154908060010160009054906101000a900473ffffffffffffffffffffffffffffffffffffffff16908060020154908060030154908060040154908060050154908060060154908060070160009054906101000a900460ff16908060070160019054906101000a900460ff16908060080160405180610100016040529081600082018054600181600116156101000203166002900480601f01602080910402602001604051908101604052809291908181526020018280546001816001161561010002031660029004801561045c5780601f106104315761010080835404028352916020019161045c565b820191906000526020600020905b81548152906001019060200180831161043f57829003601f168201915b50505050508152602001600182018054600181600116156101000203166002900480601f0160208091040260200160405190810160405280929190818152602001828054600181600116156101000203166002900480156104fe5780601f106104d3576101008083540402835291602001916104fe565b820191906000526020600020905b8154815290600101906020018083116104e157829003601f168201915b50505050508152602001600282018054600181600116156101000203166002900480601f0160208091040260200160405190810160405280929190818152602001828054600181600116156101000203166002900480156105a05780601f10610575576101008083540402835291602001916105a0565b820191906000526020600020905b81548152906001019060200180831161058357829003601f168201915b50505050508152602001600382018054600181600116156101000203166002900480601f0160208091040260200160405190810160405280929190818152602001828054600181600116156101000203166002900480156106425780601f1061061757610100808354040283529160200191610642565b820191906000526020600020905b81548152906001019060200180831161062557829003601f168201915b50505050508152602001600482018054600181600116156101000203166002900480601f0160208091040260200160405190810160405280929190818152602001828054600181600116156101000203166002900480156106e45780601f106106b9576101008083540402835291602001916106e4565b820191906000526020600020905b8154815290600101906020018083116106c757829003601f168201915b50505050508152602001600582015481526020016006820154815260200160078201548152505090508a565b6000614380905090565b6040518060400160405280601581526020017f566f5461726f20476f7665726e6f7220416c706861000000000000000000000081525081565b600042600760003373ffffffffffffffffffffffffffffffffffffffff1673ffffffffffffffffffffffffffffffffffffffff1681526020019081526020016000206000015411156107a857600190506107ad565b600090505b806107ed576040517f08c379a00000000000000000000000000000000000000000000000000000000081526004016107e490611c76565b60405180910390fd5b6107f8338484610f69565b505050565b60066020528060005260406000206000915054906101000a900460ff1681565b60056020528060005260406000206000915090505481565b600160009054906101000a900473ffffffffffffffffffffffffffffffffffffffff1681565b60006001905090565b600260009054906101000a900473ffffffffffffffffffffffffffffffffffffffff1681565b60008042600760003373ffffffffffffffffffffffffffffffffffffffff1673ffffffffffffffffffffffffffffffffffffffff1681526020019081526020016000206000015411156108e057600190506108e5565b600090505b80610925576040517f08c379a000000000000000000000000000000000000000000000000000000000815260040161091c90611c76565b60405180910390fd5b60006109384361093361085b565b61123e565b9050600061094d82610948610710565b61123e565b9050600360008154809291906001019190505550610969611293565b60405180610140016040528060035481526020013373ffffffffffffffffffffffffffffffffffffffff1681526020016000815260200184815260200183815260200160008152602001600081526020016000151581526020016000151581526020018781525090508060046000836000015181526020019081526020016000206000820151816000015560208201518160010160006101000a81548173ffffffffffffffffffffffffffffffffffffffff021916908373ffffffffffffffffffffffffffffffffffffffff16021790555060408201518160020155606082015181600301556080820151816004015560a0820151816005015560c0820151816006015560e08201518160070160006101000a81548160ff0219169083151502179055506101008201518160070160016101000a81548160ff021916908315150217905550610120820151816008016000820151816000019080519060200190610ad4929190611306565b506020820151816001019080519060200190610af1929190611306565b506040820151816002019080519060200190610b0e929190611306565b506060820151816003019080519060200190610b2b929190611306565b506080820151816004019080519060200190610b48929190611306565b5060a0820151816005015560c0820151816006015560e0820151816007015550509050506001600660008360000151815260200190815260200160002060006101000a81548160ff0219169083151502179055507fc2c021f5d73c63c481d336fbbafec58f694fc45095f00b02d2deb8cca59afe078160000151604051610bcf9190611d31565b60405180910390a18060000151945050505050919050565b600069152d02c7e14af6800000905090565b600080600760003373ffffffffffffffffffffffffffffffffffffffff1673ffffffffffffffffffffffffffffffffffffffff168152602001908152602001600020600001541415610da257604051806020016040528060034201815250600760003373ffffffffffffffffffffffffffffffffffffffff1673ffffffffffffffffffffffffffffffffffffffff168152602001908152602001600020600082015181600001559050506000600160009054906101000a900473ffffffffffffffffffffffffffffffffffffffff1673ffffffffffffffffffffffffffffffffffffffff166323b872dd3033866040518463ffffffff1660e01b8152600401610d0493929190611b5e565b602060405180830381600087803b158015610d1e57600080fd5b505af1158015610d32573d6000803e3d6000fd5b505050506040513d601f19601f82011682018060405250610d569190810190611647565b905080610d98576040517f08c379a0000000000000000000000000000000000000000000000000000000008152600401610d8f90611cd6565b60405180910390fd5b6000915050610e57565b42600760003373ffffffffffffffffffffffffffffffffffffffff1673ffffffffffffffffffffffffffffffffffffffff1681526020019081526020016000206000015410610df45760019050610e57565b6040518060200160405280600a4201815250600760003373ffffffffffffffffffffffffffffffffffffffff1673ffffffffffffffffffffffffffffffffffffffff16815260200190815260200160002060008201518160000155905050600290505b919050565b6000809054906101000a900473ffffffffffffffffffffffffffffffffffffffff1681565b60035481565b610e8f611386565b6004600084815260200190815260200160002060100160008373ffffffffffffffffffffffffffffffffffffffff1673ffffffffffffffffffffffffffffffffffffffff1681526020019081526020016000206040518060600160405290816000820160009054906101000a900460ff161515151581526020016000820160019054906101000a900460ff161515151581526020016000820160029054906101000a90046bffffffffffffffffffffffff166bffffffffffffffffffffffff166bffffffffffffffffffffffff1681525050905092915050565b600115156006600084815260200190815260200160002060009054906101000a900460ff16151514610fd0576040517f08c379a0000000000000000000000000000000000000000000000000000000008152600401610fc790611cf6565b60405180910390fd5b600060046000848152602001908152602001600020905060008160100160008673ffffffffffffffffffffffffffffffffffffffff1673ffffffffffffffffffffffffffffffffffffffff1681526020019081526020016000209050600015158160000160009054906101000a900460ff16151514611084576040517f08c379a000000000000000000000000000000000000000000000000000000000815260040161107b90611c96565b60405180910390fd5b6000600160009054906101000a900473ffffffffffffffffffffffffffffffffffffffff1673ffffffffffffffffffffffffffffffffffffffff1663782d6fe18785600301546040518363ffffffff1660e01b81526004016110e7929190611b95565b60206040518083038186803b1580156110ff57600080fd5b505afa158015611113573d6000803e3d6000fd5b505050506040513d601f19601f820116820180604052506111379190810190611752565b905083156111685761115b8360050154826bffffffffffffffffffffffff1661123e565b836005018190555061118d565b6111848360060154826bffffffffffffffffffffffff1661123e565b83600601819055505b60018260000160006101000a81548160ff021916908315150217905550838260000160016101000a81548160ff021916908315150217905550808260000160026101000a8154816bffffffffffffffffffffffff02191690836bffffffffffffffffffffffff1602179055507f877856338e13f63d0c36822ff0ef736b80934cd90574a3a5bc9262c39d217c468686868460405161122e9493929190611bbe565b60405180910390a1505050505050565b600080828401905083811015611289576040517f08c379a000000000000000000000000000000000000000000000000000000000815260040161128090611cb6565b60405180910390fd5b8091505092915050565b60405180610140016040528060008152602001600073ffffffffffffffffffffffffffffffffffffffff16815260200160008152602001600081526020016000815260200160008152602001600081526020016000151581526020016000151581526020016113006113b9565b81525090565b828054600181600116156101000203166002900490600052602060002090601f016020900481019282601f1061134757805160ff1916838001178555611375565b82800160010185558215611375579182015b82811115611374578251825591602001919060010190611359565b5b50905061138291906113fe565b5090565b604051806060016040528060001515815260200160001515815260200160006bffffffffffffffffffffffff1681525090565b60405180610100016040528060608152602001606081526020016060815260200160608152602001606081526020016000815260200160008152602001600081525090565b61142091905b8082111561141c576000816000905550600101611404565b5090565b90565b60008135905061143281611fb8565b92915050565b60008135905061144781611fcf565b92915050565b60008151905061145c81611fcf565b92915050565b600082601f83011261147357600080fd5b813561148661148182611e1c565b611def565b915080825260208301602083018583830111156114a257600080fd5b6114ad838284611f65565b50505092915050565b600061010082840312156114c957600080fd5b6114d4610100611def565b9050600082013567ffffffffffffffff8111156114f057600080fd5b6114fc84828501611462565b600083015250602082013567ffffffffffffffff81111561151c57600080fd5b61152884828501611462565b602083015250604082013567ffffffffffffffff81111561154857600080fd5b61155484828501611462565b604083015250606082013567ffffffffffffffff81111561157457600080fd5b61158084828501611462565b606083015250608082013567ffffffffffffffff8111156115a057600080fd5b6115ac84828501611462565b60808301525060a06115c0848285016115f4565b60a08301525060c06115d4848285016115f4565b60c08301525060e06115e8848285016115f4565b60e08301525092915050565b60008135905061160381611fe6565b92915050565b60008151905061161881611ffd565b92915050565b60006020828403121561163057600080fd5b600061163e84828501611423565b91505092915050565b60006020828403121561165957600080fd5b60006116678482850161144d565b91505092915050565b60006020828403121561168257600080fd5b600082013567ffffffffffffffff81111561169c57600080fd5b6116a8848285016114b6565b91505092915050565b6000602082840312156116c357600080fd5b60006116d1848285016115f4565b91505092915050565b600080604083850312156116ed57600080fd5b60006116fb858286016115f4565b925050602061170c85828601611423565b9150509250929050565b6000806040838503121561172957600080fd5b6000611737858286016115f4565b925050602061174885828601611438565b9150509250929050565b60006020828403121561176457600080fd5b600061177284828501611609565b91505092915050565b61178481611ed5565b82525050565b61179381611e75565b82525050565b6117a281611e87565b82525050565b6117b181611e87565b82525050565b6117c081611ee7565b82525050565b6117cf81611f0b565b82525050565b60006117e082611e48565b6117ea8185611e53565b93506117fa818560208601611f74565b61180381611fa7565b840191505092915050565b600061181982611e48565b6118238185611e64565b9350611833818560208601611f74565b61183c81611fa7565b840191505092915050565b6000611854601f83611e64565b91507f75736572206973206e6f742063757272656e746c792076616c696461746564006000830152602082019050919050565b6000611894602d83611e64565b91507f476f7665726e6f72416c7068613a3a5f63617374566f74653a20766f7465722060008301527f616c726561647920766f746564000000000000000000000000000000000000006020830152604082019050919050565b60006118fa601183611e64565b91507f6164646974696f6e206f766572666c6f770000000000000000000000000000006000830152602082019050919050565b600061193a602483611e64565b91507f546f6b656e73206e6f74207472616e7366657272656420746f206d73672e736560008301527f6e646572000000000000000000000000000000000000000000000000000000006020830152604082019050919050565b60006119a0602a83611e64565b91507f476f7665726e6f72416c7068613a3a5f63617374566f74653a20766f74696e6760008301527f20697320636c6f736564000000000000000000000000000000000000000000006020830152604082019050919050565b606082016000820151611a0f6000850182611799565b506020820151611a226020850182611799565b506040820151611a356040850182611b34565b50505050565b6000610100830160008301518482036000860152611a5982826117d5565b91505060208301518482036020860152611a7382826117d5565b91505060408301518482036040860152611a8d82826117d5565b91505060608301518482036060860152611aa782826117d5565b91505060808301518482036080860152611ac182826117d5565b91505060a0830151611ad660a0860182611b07565b5060c0830151611ae960c0860182611b07565b5060e0830151611afc60e0860182611b07565b508091505092915050565b611b1081611eb3565b82525050565b611b1f81611eb3565b82525050565b611b2e81611f53565b82525050565b611b3d81611ebd565b82525050565b6000602082019050611b58600083018461178a565b92915050565b6000606082019050611b73600083018661178a565b611b80602083018561177b565b611b8d6040830184611b16565b949350505050565b6000604082019050611baa600083018561178a565b611bb76020830184611b16565b9392505050565b6000608082019050611bd3600083018761178a565b611be06020830186611b16565b611bed60408301856117a8565b611bfa6060830184611b25565b95945050505050565b6000602082019050611c1860008301846117a8565b92915050565b6000602082019050611c3360008301846117b7565b92915050565b6000602082019050611c4e60008301846117c6565b92915050565b60006020820190508181036000830152611c6e818461180e565b905092915050565b60006020820190508181036000830152611c8f81611847565b9050919050565b60006020820190508181036000830152611caf81611887565b9050919050565b60006020820190508181036000830152611ccf816118ed565b9050919050565b60006020820190508181036000830152611cef8161192d565b9050919050565b60006020820190508181036000830152611d0f81611993565b9050919050565b6000606082019050611d2b60008301846119f9565b92915050565b6000602082019050611d466000830184611b16565b92915050565b600061014082019050611d62600083018d611b16565b611d6f602083018c61178a565b611d7c604083018b611b16565b611d89606083018a611b16565b611d966080830189611b16565b611da360a0830188611b16565b611db060c0830187611b16565b611dbd60e08301866117a8565b611dcb6101008301856117a8565b818103610120830152611dde8184611a3b565b90509b9a5050505050505050505050565b6000604051905081810181811067ffffffffffffffff82111715611e1257600080fd5b8060405250919050565b600067ffffffffffffffff821115611e3357600080fd5b601f19601f8301169050602081019050919050565b600081519050919050565b600082825260208201905092915050565b600082825260208201905092915050565b6000611e8082611e93565b9050919050565b60008115159050919050565b600073ffffffffffffffffffffffffffffffffffffffff82169050919050565b6000819050919050565b60006bffffffffffffffffffffffff82169050919050565b6000611ee082611f2f565b9050919050565b6000611ef282611ef9565b9050919050565b6000611f0482611e93565b9050919050565b6000611f1682611f1d565b9050919050565b6000611f2882611e93565b9050919050565b6000611f3a82611f41565b9050919050565b6000611f4c82611e93565b9050919050565b6000611f5e82611ebd565b9050919050565b82818337600083830152505050565b60005b83811015611f92578082015181840152602081019050611f77565b83811115611fa1576000848401525b50505050565b6000601f19601f8301169050919050565b611fc181611e75565b8114611fcc57600080fd5b50565b611fd881611e87565b8114611fe357600080fd5b50565b611fef81611eb3565b8114611ffa57600080fd5b50565b61200681611ebd565b811461201157600080fd5b5056fea365627a7a723158209ba677298259567b415db7ff0564cdfd0d1ef9f65f00e233508e3c915cc2c61f6c6578706572696d656e74616cf564736f6c63430005100040",
  "linkReferences": {},
  "deployedLinkReferences": {}
}