{
  "_format": "hh-sol-artifact-1",
  "contractName": "GovernorAlpha",
  "sourceName": "contracts/GovernorAlpha.sol",
  "abi": [
    {
      "inputs": [
        {
          "internalType": "address",
          "name": "timelock_",
          "type": "address"
        },
        {
          "internalType": "address",
          "name": "comp_",
          "type": "address"
        },
        {
          "internalType": "address",
          "name": "guardian_",
          "type": "address"
        }
      ],
      "payable": false,
      "stateMutability": "nonpayable",
      "type": "constructor"
    },
    {
      "anonymous": false,
      "inputs": [
        {
          "indexed": true,
          "internalType": "uint256",
          "name": "id",
          "type": "uint256"
        },
        {
          "indexed": false,
          "internalType": "address",
          "name": "proposer",
          "type": "address"
        },
        {
          "indexed": false,
          "internalType": "string",
          "name": "title",
          "type": "string"
        }
      ],
      "name": "ProposalCreated",
      "type": "event"
    },
    {
      "constant": true,
      "inputs": [],
      "name": "comp",
      "outputs": [
        {
          "internalType": "contract CompInterface",
          "name": "",
          "type": "address"
        }
      ],
      "payable": false,
      "stateMutability": "view",
      "type": "function"
    },
    {
      "constant": true,
      "inputs": [],
      "name": "guardian",
      "outputs": [
        {
          "internalType": "address",
          "name": "",
          "type": "address"
        }
      ],
      "payable": false,
      "stateMutability": "view",
      "type": "function"
    },
    {
      "constant": true,
      "inputs": [
        {
          "internalType": "address",
          "name": "",
          "type": "address"
        }
      ],
      "name": "latestProposalIds",
      "outputs": [
        {
          "internalType": "uint256",
          "name": "",
          "type": "uint256"
        }
      ],
      "payable": false,
      "stateMutability": "view",
      "type": "function"
    },
    {
      "constant": true,
      "inputs": [],
      "name": "name",
      "outputs": [
        {
          "internalType": "string",
          "name": "",
          "type": "string"
        }
      ],
      "payable": false,
      "stateMutability": "view",
      "type": "function"
    },
    {
      "constant": true,
      "inputs": [],
      "name": "proposalCount",
      "outputs": [
        {
          "internalType": "uint256",
          "name": "",
          "type": "uint256"
        }
      ],
      "payable": false,
      "stateMutability": "view",
      "type": "function"
    },
    {
      "constant": true,
      "inputs": [],
      "name": "proposalThreshold",
      "outputs": [
        {
          "internalType": "uint256",
          "name": "",
          "type": "uint256"
        }
      ],
      "payable": false,
      "stateMutability": "pure",
      "type": "function"
    },
    {
      "constant": true,
      "inputs": [
        {
          "internalType": "uint256",
          "name": "",
          "type": "uint256"
        }
      ],
      "name": "proposals",
      "outputs": [
        {
          "internalType": "uint256",
          "name": "id",
          "type": "uint256"
        },
        {
          "internalType": "address",
          "name": "proposer",
          "type": "address"
        },
        {
          "internalType": "uint256",
          "name": "eta",
          "type": "uint256"
        },
        {
          "components": [
            {
              "internalType": "string",
              "name": "title",
              "type": "string"
            },
            {
              "internalType": "string",
              "name": "typeOfAction",
              "type": "string"
            },
            {
              "internalType": "string",
              "name": "neighborhood",
              "type": "string"
            },
            {
              "internalType": "string",
              "name": "personInCharge",
              "type": "string"
            },
            {
              "internalType": "string",
              "name": "description",
              "type": "string"
            },
            {
              "internalType": "uint256",
              "name": "expiration",
              "type": "uint256"
            },
            {
              "internalType": "uint256",
              "name": "budget",
              "type": "uint256"
            },
            {
              "internalType": "uint256",
              "name": "requiredTaroToVote",
              "type": "uint256"
            }
          ],
          "internalType": "struct GovernorAlpha.UserInputFields",
          "name": "userInputFields",
          "type": "tuple"
        },
        {
          "internalType": "uint256",
          "name": "startBlock",
          "type": "uint256"
        },
        {
          "internalType": "uint256",
          "name": "endBlock",
          "type": "uint256"
        },
        {
          "internalType": "uint256",
          "name": "forVotes",
          "type": "uint256"
        },
        {
          "internalType": "uint256",
          "name": "againstVotes",
          "type": "uint256"
        },
        {
          "internalType": "bool",
          "name": "canceled",
          "type": "bool"
        },
        {
          "internalType": "bool",
          "name": "executed",
          "type": "bool"
        }
      ],
      "payable": false,
      "stateMutability": "view",
      "type": "function"
    },
    {
      "constant": false,
      "inputs": [
        {
          "components": [
            {
              "internalType": "string",
              "name": "title",
              "type": "string"
            },
            {
              "internalType": "string",
              "name": "typeOfAction",
              "type": "string"
            },
            {
              "internalType": "string",
              "name": "neighborhood",
              "type": "string"
            },
            {
              "internalType": "string",
              "name": "personInCharge",
              "type": "string"
            },
            {
              "internalType": "string",
              "name": "description",
              "type": "string"
            },
            {
              "internalType": "uint256",
              "name": "expiration",
              "type": "uint256"
            },
            {
              "internalType": "uint256",
              "name": "budget",
              "type": "uint256"
            },
            {
              "internalType": "uint256",
              "name": "requiredTaroToVote",
              "type": "uint256"
            }
          ],
          "internalType": "struct GovernorAlpha.UserInputFields",
          "name": "_userInputFields",
          "type": "tuple"
        }
      ],
      "name": "propose",
      "outputs": [
        {
          "internalType": "uint256",
          "name": "",
          "type": "uint256"
        }
      ],
      "payable": false,
      "stateMutability": "nonpayable",
      "type": "function"
    },
    {
      "constant": true,
      "inputs": [],
      "name": "timelock",
      "outputs": [
        {
          "internalType": "contract TimelockInterface",
          "name": "",
          "type": "address"
        }
      ],
      "payable": false,
      "stateMutability": "view",
      "type": "function"
    },
    {
      "constant": true,
      "inputs": [],
      "name": "votingDelay",
      "outputs": [
        {
          "internalType": "uint256",
          "name": "",
          "type": "uint256"
        }
      ],
      "payable": false,
      "stateMutability": "pure",
      "type": "function"
    },
    {
      "constant": true,
      "inputs": [],
      "name": "votingPeriod",
      "outputs": [
        {
          "internalType": "uint256",
          "name": "",
          "type": "uint256"
        }
      ],
      "payable": false,
      "stateMutability": "pure",
      "type": "function"
    }
  ],
  "bytecode": "0x60806040523480156200001157600080fd5b506040516200174138038062001741833981810160405262000037919081019062000119565b826000806101000a81548173ffffffffffffffffffffffffffffffffffffffff021916908373ffffffffffffffffffffffffffffffffffffffff16021790555081600160006101000a81548173ffffffffffffffffffffffffffffffffffffffff021916908373ffffffffffffffffffffffffffffffffffffffff16021790555080600260006101000a81548173ffffffffffffffffffffffffffffffffffffffff021916908373ffffffffffffffffffffffffffffffffffffffff160217905550505050620001bd565b6000815190506200011381620001a3565b92915050565b6000806000606084860312156200012f57600080fd5b60006200013f8682870162000102565b9350506020620001528682870162000102565b9250506040620001658682870162000102565b9150509250925092565b60006200017c8262000183565b9050919050565b600073ffffffffffffffffffffffffffffffffffffffff82169050919050565b620001ae816200016f565b8114620001ba57600080fd5b50565b61157480620001cd6000396000f3fe608060405234801561001057600080fd5b50600436106100a95760003560e01c80633932abb1116100715780633932abb114610171578063452a93201461018f578063ab0fbf16146101ad578063b58131b0146101dd578063d33219b4146101fb578063da35c66414610219576100a9565b8063013cf08b146100ae57806302a251a3146100e757806306fdde0314610105578063109d0af81461012357806317977c6114610141575b600080fd5b6100c860048036036100c39190810190610f6d565b610237565b6040516100de9a999897969594939291906112ec565b60405180910390f35b6100ef610618565b6040516100fc91906112d1565b60405180910390f35b61010d610622565b60405161011a9190611228565b60405180910390f35b61012b61065b565b60405161013891906111f2565b60405180910390f35b61015b60048036036101569190810190610f03565b610681565b60405161016891906112d1565b60405180910390f35b610179610699565b60405161018691906112d1565b60405180910390f35b6101976106a2565b6040516101a491906111a7565b60405180910390f35b6101c760048036036101c29190810190610f2c565b6106c8565b6040516101d491906112d1565b60405180910390f35b6101e56109f7565b6040516101f291906112d1565b60405180910390f35b610203610a09565b604051610210919061120d565b60405180910390f35b610221610a2e565b60405161022e91906112d1565b60405180910390f35b60046020528060005260406000206000915090508060000154908060010160009054906101000a900473ffffffffffffffffffffffffffffffffffffffff16908060020154908060030160405180610100016040529081600082018054600181600116156101000203166002900480601f0160208091040260200160405190810160405280929190818152602001828054600181600116156101000203166002900480156103265780601f106102fb57610100808354040283529160200191610326565b820191906000526020600020905b81548152906001019060200180831161030957829003601f168201915b50505050508152602001600182018054600181600116156101000203166002900480601f0160208091040260200160405190810160405280929190818152602001828054600181600116156101000203166002900480156103c85780601f1061039d576101008083540402835291602001916103c8565b820191906000526020600020905b8154815290600101906020018083116103ab57829003601f168201915b50505050508152602001600282018054600181600116156101000203166002900480601f01602080910402602001604051908101604052809291908181526020018280546001816001161561010002031660029004801561046a5780601f1061043f5761010080835404028352916020019161046a565b820191906000526020600020905b81548152906001019060200180831161044d57829003601f168201915b50505050508152602001600382018054600181600116156101000203166002900480601f01602080910402602001604051908101604052809291908181526020018280546001816001161561010002031660029004801561050c5780601f106104e15761010080835404028352916020019161050c565b820191906000526020600020905b8154815290600101906020018083116104ef57829003601f168201915b50505050508152602001600482018054600181600116156101000203166002900480601f0160208091040260200160405190810160405280929190818152602001828054600181600116156101000203166002900480156105ae5780601f10610583576101008083540402835291602001916105ae565b820191906000526020600020905b81548152906001019060200180831161059157829003601f168201915b5050505050815260200160058201548152602001600682015481526020016007820154815250509080600b01549080600c01549080600d01549080600e01549080600f0160009054906101000a900460ff169080600f0160019054906101000a900460ff1690508a565b6000614380905090565b6040518060400160405280601581526020017f566f5461726f20476f7665726e6f7220416c706861000000000000000000000081525081565b600160009054906101000a900473ffffffffffffffffffffffffffffffffffffffff1681565b60056020528060005260406000206000915090505481565b60006001905090565b600260009054906101000a900473ffffffffffffffffffffffffffffffffffffffff1681565b6000806106dc436106d7610699565b610a34565b905060006106f1826106ec610618565b610a34565b905060036000815480929190600101919050555061070d610bea565b60405180610140016040528060035481526020013373ffffffffffffffffffffffffffffffffffffffff1681526020016000815260200186815260200184815260200183815260200160008152602001600081526020016000151581526020016000151581525090506107bd6040518060400160405280600781526020017f7469746c653a2000000000000000000000000000000000000000000000000000815250826060015160000151610a89565b6108046040518060400160405280600881526020017f6275646765743a20000000000000000000000000000000000000000000000000815250826060015160c00151610b25565b8060046000836000015181526020019081526020016000206000820151816000015560208201518160010160006101000a81548173ffffffffffffffffffffffffffffffffffffffff021916908373ffffffffffffffffffffffffffffffffffffffff16021790555060408201518160020155606082015181600301600082015181600001908051906020019061089c929190610c5d565b5060208201518160010190805190602001906108b9929190610c5d565b5060408201518160020190805190602001906108d6929190610c5d565b5060608201518160030190805190602001906108f3929190610c5d565b506080820151816004019080519060200190610910929190610c5d565b5060a0820151816005015560c0820151816006015560e082015181600701555050608082015181600b015560a082015181600c015560c082015181600d015560e082015181600e015561010082015181600f0160006101000a81548160ff02191690831515021790555061012082015181600f0160016101000a81548160ff02191690831515021790555090505080600001517f7585f467599d0f008985f231af99293be388626ac16ca59505c2f8f88969cd6382602001518360600151600001516040516109e09291906111c2565b60405180910390a280600001519350505050919050565b600069152d02c7e14af6800000905090565b6000809054906101000a900473ffffffffffffffffffffffffffffffffffffffff1681565b60035481565b600080828401905083811015610a7f576040517f08c379a0000000000000000000000000000000000000000000000000000000008152600401610a76906112b1565b60405180910390fd5b8091505092915050565b610b218282604051602401610a9f92919061124a565b6040516020818303038152906040527f4b5c4277000000000000000000000000000000000000000000000000000000007bffffffffffffffffffffffffffffffffffffffffffffffffffffffff19166020820180517bffffffffffffffffffffffffffffffffffffffffffffffffffffffff8381831617835250505050610bc1565b5050565b610bbd8282604051602401610b3b929190611281565b6040516020818303038152906040527f9710a9d0000000000000000000000000000000000000000000000000000000007bffffffffffffffffffffffffffffffffffffffffffffffffffffffff19166020820180517bffffffffffffffffffffffffffffffffffffffffffffffffffffffff8381831617835250505050610bc1565b5050565b60008151905060006a636f6e736f6c652e6c6f679050602083016000808483855afa5050505050565b60405180610140016040528060008152602001600073ffffffffffffffffffffffffffffffffffffffff16815260200160008152602001610c29610cdd565b8152602001600081526020016000815260200160008152602001600081526020016000151581526020016000151581525090565b828054600181600116156101000203166002900490600052602060002090601f016020900481019282601f10610c9e57805160ff1916838001178555610ccc565b82800160010185558215610ccc579182015b82811115610ccb578251825591602001919060010190610cb0565b5b509050610cd99190610d22565b5090565b60405180610100016040528060608152602001606081526020016060815260200160608152602001606081526020016000815260200160008152602001600081525090565b610d4491905b80821115610d40576000816000905550600101610d28565b5090565b90565b600081359050610d5681611503565b92915050565b600082601f830112610d6d57600080fd5b8135610d80610d7b826113bc565b61138f565b91508082526020830160208301858383011115610d9c57600080fd5b610da78382846114b0565b50505092915050565b60006101008284031215610dc357600080fd5b610dce61010061138f565b9050600082013567ffffffffffffffff811115610dea57600080fd5b610df684828501610d5c565b600083015250602082013567ffffffffffffffff811115610e1657600080fd5b610e2284828501610d5c565b602083015250604082013567ffffffffffffffff811115610e4257600080fd5b610e4e84828501610d5c565b604083015250606082013567ffffffffffffffff811115610e6e57600080fd5b610e7a84828501610d5c565b606083015250608082013567ffffffffffffffff811115610e9a57600080fd5b610ea684828501610d5c565b60808301525060a0610eba84828501610eee565b60a08301525060c0610ece84828501610eee565b60c08301525060e0610ee284828501610eee565b60e08301525092915050565b600081359050610efd8161151a565b92915050565b600060208284031215610f1557600080fd5b6000610f2384828501610d47565b91505092915050565b600060208284031215610f3e57600080fd5b600082013567ffffffffffffffff811115610f5857600080fd5b610f6484828501610db0565b91505092915050565b600060208284031215610f7f57600080fd5b6000610f8d84828501610eee565b91505092915050565b610f9f81611420565b82525050565b610fae81611432565b82525050565b610fbd81611468565b82525050565b610fcc8161148c565b82525050565b6000610fdd826113f3565b610fe7818561140f565b9350610ff78185602086016114bf565b611000816114f2565b840191505092915050565b6000611016826113e8565b61102081856113fe565b93506110308185602086016114bf565b611039816114f2565b840191505092915050565b600061104f826113e8565b611059818561140f565b93506110698185602086016114bf565b611072816114f2565b840191505092915050565b600061108a60118361140f565b91507f6164646974696f6e206f766572666c6f770000000000000000000000000000006000830152602082019050919050565b60006101008301600083015184820360008601526110db828261100b565b915050602083015184820360208601526110f5828261100b565b9150506040830151848203604086015261110f828261100b565b91505060608301518482036060860152611129828261100b565b91505060808301518482036080860152611143828261100b565b91505060a083015161115860a0860182611189565b5060c083015161116b60c0860182611189565b5060e083015161117e60e0860182611189565b508091505092915050565b6111928161145e565b82525050565b6111a18161145e565b82525050565b60006020820190506111bc6000830184610f96565b92915050565b60006040820190506111d76000830185610f96565b81810360208301526111e98184611044565b90509392505050565b60006020820190506112076000830184610fb4565b92915050565b60006020820190506112226000830184610fc3565b92915050565b600060208201905081810360008301526112428184611044565b905092915050565b600060408201905081810360008301526112648185610fd2565b905081810360208301526112788184610fd2565b90509392505050565b6000604082019050818103600083015261129b8185610fd2565b90506112aa6020830184611198565b9392505050565b600060208201905081810360008301526112ca8161107d565b9050919050565b60006020820190506112e66000830184611198565b92915050565b600061014082019050611302600083018d611198565b61130f602083018c610f96565b61131c604083018b611198565b818103606083015261132e818a6110bd565b905061133d6080830189611198565b61134a60a0830188611198565b61135760c0830187611198565b61136460e0830186611198565b611372610100830185610fa5565b611380610120830184610fa5565b9b9a5050505050505050505050565b6000604051905081810181811067ffffffffffffffff821117156113b257600080fd5b8060405250919050565b600067ffffffffffffffff8211156113d357600080fd5b601f19601f8301169050602081019050919050565b600081519050919050565b600081519050919050565b600082825260208201905092915050565b600082825260208201905092915050565b600061142b8261143e565b9050919050565b60008115159050919050565b600073ffffffffffffffffffffffffffffffffffffffff82169050919050565b6000819050919050565b60006114738261147a565b9050919050565b60006114858261143e565b9050919050565b60006114978261149e565b9050919050565b60006114a98261143e565b9050919050565b82818337600083830152505050565b60005b838110156114dd5780820151818401526020810190506114c2565b838111156114ec576000848401525b50505050565b6000601f19601f8301169050919050565b61150c81611420565b811461151757600080fd5b50565b6115238161145e565b811461152e57600080fd5b5056fea365627a7a72315820f943ff52a35bdb7697b989ab8262caec4f40df23f8f98a02d61c995bc73f02ef6c6578706572696d656e74616cf564736f6c63430005100040",
  "linkReferences": {},
  "deployedLinkReferences": {}
}