{
  "_format": "hh-sol-artifact-1",
  "contractName": "GovernorAlpha",
  "sourceName": "contracts/GovernorAlpha.sol",
  "abi": [
    {
      "inputs": [
        {
          "internalType": "address",
          "name": "timelock_",
          "type": "address"
        },
        {
          "internalType": "address",
          "name": "taro_",
          "type": "address"
        },
        {
          "internalType": "address",
          "name": "guardian_",
          "type": "address"
        }
      ],
      "payable": false,
      "stateMutability": "nonpayable",
      "type": "constructor"
    },
    {
      "anonymous": false,
      "inputs": [
        {
          "indexed": false,
          "internalType": "uint256",
          "name": "id",
          "type": "uint256"
        }
      ],
      "name": "ProposalCreated",
      "type": "event"
    },
    {
      "anonymous": false,
      "inputs": [
        {
          "indexed": false,
          "internalType": "address",
          "name": "voter",
          "type": "address"
        },
        {
          "indexed": false,
          "internalType": "uint256",
          "name": "proposalId",
          "type": "uint256"
        },
        {
          "indexed": false,
          "internalType": "bool",
          "name": "support",
          "type": "bool"
        },
        {
          "indexed": false,
          "internalType": "uint256",
          "name": "votes",
          "type": "uint256"
        }
      ],
      "name": "VoteCast",
      "type": "event"
    },
    {
      "constant": false,
      "inputs": [
        {
          "internalType": "uint256",
          "name": "proposalId",
          "type": "uint256"
        },
        {
          "internalType": "bool",
          "name": "support",
          "type": "bool"
        }
      ],
      "name": "castVote",
      "outputs": [],
      "payable": false,
      "stateMutability": "nonpayable",
      "type": "function"
    },
    {
      "constant": true,
      "inputs": [
        {
          "internalType": "uint256",
          "name": "proposalId",
          "type": "uint256"
        },
        {
          "internalType": "address",
          "name": "voter",
          "type": "address"
        }
      ],
      "name": "getReceipt",
      "outputs": [
        {
          "components": [
            {
              "internalType": "bool",
              "name": "hasVoted",
              "type": "bool"
            },
            {
              "internalType": "bool",
              "name": "support",
              "type": "bool"
            },
            {
              "internalType": "uint96",
              "name": "votes",
              "type": "uint96"
            }
          ],
          "internalType": "struct GovernorAlpha.Receipt",
          "name": "",
          "type": "tuple"
        }
      ],
      "payable": false,
      "stateMutability": "view",
      "type": "function"
    },
    {
      "constant": true,
      "inputs": [],
      "name": "getValidityStatus",
      "outputs": [
        {
          "internalType": "uint256",
          "name": "",
          "type": "uint256"
        },
        {
          "internalType": "uint256",
          "name": "",
          "type": "uint256"
        }
      ],
      "payable": false,
      "stateMutability": "view",
      "type": "function"
    },
    {
      "constant": true,
      "inputs": [],
      "name": "guardian",
      "outputs": [
        {
          "internalType": "address",
          "name": "",
          "type": "address"
        }
      ],
      "payable": false,
      "stateMutability": "view",
      "type": "function"
    },
    {
      "constant": true,
      "inputs": [
        {
          "internalType": "uint256",
          "name": "",
          "type": "uint256"
        }
      ],
      "name": "isProposalActive",
      "outputs": [
        {
          "internalType": "bool",
          "name": "",
          "type": "bool"
        }
      ],
      "payable": false,
      "stateMutability": "view",
      "type": "function"
    },
    {
      "constant": true,
      "inputs": [
        {
          "internalType": "address",
          "name": "",
          "type": "address"
        }
      ],
      "name": "latestProposalIds",
      "outputs": [
        {
          "internalType": "uint256",
          "name": "",
          "type": "uint256"
        }
      ],
      "payable": false,
      "stateMutability": "view",
      "type": "function"
    },
    {
      "constant": true,
      "inputs": [],
      "name": "name",
      "outputs": [
        {
          "internalType": "string",
          "name": "",
          "type": "string"
        }
      ],
      "payable": false,
      "stateMutability": "view",
      "type": "function"
    },
    {
      "constant": true,
      "inputs": [],
      "name": "proposalCount",
      "outputs": [
        {
          "internalType": "uint256",
          "name": "",
          "type": "uint256"
        }
      ],
      "payable": false,
      "stateMutability": "view",
      "type": "function"
    },
    {
      "constant": true,
      "inputs": [],
      "name": "proposalThreshold",
      "outputs": [
        {
          "internalType": "uint256",
          "name": "",
          "type": "uint256"
        }
      ],
      "payable": false,
      "stateMutability": "pure",
      "type": "function"
    },
    {
      "constant": true,
      "inputs": [
        {
          "internalType": "uint256",
          "name": "",
          "type": "uint256"
        }
      ],
      "name": "proposals",
      "outputs": [
        {
          "internalType": "uint256",
          "name": "id",
          "type": "uint256"
        },
        {
          "internalType": "address",
          "name": "proposer",
          "type": "address"
        },
        {
          "internalType": "uint256",
          "name": "eta",
          "type": "uint256"
        },
        {
          "internalType": "uint256",
          "name": "startBlock",
          "type": "uint256"
        },
        {
          "internalType": "uint256",
          "name": "endBlock",
          "type": "uint256"
        },
        {
          "internalType": "uint256",
          "name": "forVotes",
          "type": "uint256"
        },
        {
          "internalType": "uint256",
          "name": "againstVotes",
          "type": "uint256"
        },
        {
          "internalType": "bool",
          "name": "canceled",
          "type": "bool"
        },
        {
          "internalType": "bool",
          "name": "executed",
          "type": "bool"
        },
        {
          "components": [
            {
              "internalType": "string",
              "name": "title",
              "type": "string"
            },
            {
              "internalType": "string",
              "name": "typeOfAction",
              "type": "string"
            },
            {
              "internalType": "string",
              "name": "neighborhood",
              "type": "string"
            },
            {
              "internalType": "string",
              "name": "personInCharge",
              "type": "string"
            },
            {
              "internalType": "string",
              "name": "description",
              "type": "string"
            },
            {
              "internalType": "uint256",
              "name": "expiration",
              "type": "uint256"
            },
            {
              "internalType": "uint256",
              "name": "budget",
              "type": "uint256"
            },
            {
              "internalType": "uint256",
              "name": "requiredTaroToVote",
              "type": "uint256"
            }
          ],
          "internalType": "struct GovernorAlpha.UserInputFields",
          "name": "userInputFields",
          "type": "tuple"
        }
      ],
      "payable": false,
      "stateMutability": "view",
      "type": "function"
    },
    {
      "constant": false,
      "inputs": [
        {
          "components": [
            {
              "internalType": "string",
              "name": "title",
              "type": "string"
            },
            {
              "internalType": "string",
              "name": "typeOfAction",
              "type": "string"
            },
            {
              "internalType": "string",
              "name": "neighborhood",
              "type": "string"
            },
            {
              "internalType": "string",
              "name": "personInCharge",
              "type": "string"
            },
            {
              "internalType": "string",
              "name": "description",
              "type": "string"
            },
            {
              "internalType": "uint256",
              "name": "expiration",
              "type": "uint256"
            },
            {
              "internalType": "uint256",
              "name": "budget",
              "type": "uint256"
            },
            {
              "internalType": "uint256",
              "name": "requiredTaroToVote",
              "type": "uint256"
            }
          ],
          "internalType": "struct GovernorAlpha.UserInputFields",
          "name": "_userInputFields",
          "type": "tuple"
        }
      ],
      "name": "propose",
      "outputs": [
        {
          "internalType": "uint256",
          "name": "",
          "type": "uint256"
        }
      ],
      "payable": false,
      "stateMutability": "nonpayable",
      "type": "function"
    },
    {
      "constant": true,
      "inputs": [],
      "name": "taro",
      "outputs": [
        {
          "internalType": "contract TaroInterface",
          "name": "",
          "type": "address"
        }
      ],
      "payable": false,
      "stateMutability": "view",
      "type": "function"
    },
    {
      "constant": true,
      "inputs": [],
      "name": "timelock",
      "outputs": [
        {
          "internalType": "contract TimelockInterface",
          "name": "",
          "type": "address"
        }
      ],
      "payable": false,
      "stateMutability": "view",
      "type": "function"
    },
    {
      "constant": false,
      "inputs": [
        {
          "internalType": "uint256",
          "name": "_rewardedTokens",
          "type": "uint256"
        }
      ],
      "name": "validate",
      "outputs": [
        {
          "internalType": "uint256",
          "name": "",
          "type": "uint256"
        }
      ],
      "payable": false,
      "stateMutability": "nonpayable",
      "type": "function"
    },
    {
      "constant": true,
      "inputs": [
        {
          "internalType": "address",
          "name": "",
          "type": "address"
        }
      ],
      "name": "validations",
      "outputs": [
        {
          "internalType": "uint256",
          "name": "expirationTime",
          "type": "uint256"
        }
      ],
      "payable": false,
      "stateMutability": "view",
      "type": "function"
    },
    {
      "constant": true,
      "inputs": [],
      "name": "votingDelay",
      "outputs": [
        {
          "internalType": "uint256",
          "name": "",
          "type": "uint256"
        }
      ],
      "payable": false,
      "stateMutability": "pure",
      "type": "function"
    },
    {
      "constant": true,
      "inputs": [],
      "name": "votingPeriod",
      "outputs": [
        {
          "internalType": "uint256",
          "name": "",
          "type": "uint256"
        }
      ],
      "payable": false,
      "stateMutability": "pure",
      "type": "function"
    }
  ],
  "bytecode": "0x60806040523480156200001157600080fd5b506040516200237a3803806200237a833981810160405262000037919081019062000119565b826000806101000a81548173ffffffffffffffffffffffffffffffffffffffff021916908373ffffffffffffffffffffffffffffffffffffffff16021790555081600160006101000a81548173ffffffffffffffffffffffffffffffffffffffff021916908373ffffffffffffffffffffffffffffffffffffffff16021790555080600260006101000a81548173ffffffffffffffffffffffffffffffffffffffff021916908373ffffffffffffffffffffffffffffffffffffffff160217905550505050620001bd565b6000815190506200011381620001a3565b92915050565b6000806000606084860312156200012f57600080fd5b60006200013f8682870162000102565b9350506020620001528682870162000102565b9250506040620001658682870162000102565b9150509250925092565b60006200017c8262000183565b9050919050565b600073ffffffffffffffffffffffffffffffffffffffff82169050919050565b620001ae816200016f565b8114620001ba57600080fd5b50565b6121ad80620001cd6000396000f3fe608060405234801561001057600080fd5b506004361061010b5760003560e01c80633932abb1116100a2578063ce4d01a311610071578063ce4d01a3146102c8578063d33219b4146102f8578063da35c66414610316578063e23a9a5214610334578063f7155345146103645761010b565b80633932abb11461023e578063452a93201461025c578063ab0fbf161461027a578063b58131b0146102aa5761010b565b8063164b3d2f116100de578063164b3d2f146101a157806317977c61146101d157806331bfb4ca1461020157806337d4e386146102205761010b565b8063013cf08b1461011057806302a251a31461014957806306fdde031461016757806315373e3d14610185575b600080fd5b61012a600480360361012591908101906117de565b610394565b6040516101409a99989796959493929190611e79565b60405180910390f35b610151610775565b60405161015e9190611e5e565b60405180910390f35b61016f61077f565b60405161017c9190611d81565b60405180910390f35b61019f600480360361019a9190810190611843565b6107b8565b005b6101bb60048036036101b691908101906117de565b610862565b6040516101c89190611d30565b60405180910390f35b6101eb60048036036101e6919081019061174b565b610882565b6040516101f89190611e5e565b60405180910390f35b61020961089a565b604051610217929190611f1c565b60405180910390f35b610228610944565b6040516102359190611d4b565b60405180910390f35b61024661096a565b6040516102539190611e5e565b60405180910390f35b610264610973565b6040516102719190611c70565b60405180910390f35b610294600480360361028f919081019061179d565b610999565b6040516102a19190611e5e565b60405180910390f35b6102b2610cf6565b6040516102bf9190611e5e565b60405180910390f35b6102e260048036036102dd91908101906117de565b610d08565b6040516102ef9190611e5e565b60405180910390f35b610300610f6b565b60405161030d9190611d66565b60405180910390f35b61031e610f90565b60405161032b9190611e5e565b60405180910390f35b61034e60048036036103499190810190611807565b610f96565b60405161035b9190611e43565b60405180910390f35b61037e6004803603610379919081019061174b565b611078565b60405161038b9190611e5e565b60405180910390f35b60046020528060005260406000206000915090508060000154908060010160009054906101000a900473ffffffffffffffffffffffffffffffffffffffff16908060020154908060030154908060040154908060050154908060060154908060070160009054906101000a900460ff16908060070160019054906101000a900460ff16908060080160405180610100016040529081600082018054600181600116156101000203166002900480601f0160208091040260200160405190810160405280929190818152602001828054600181600116156101000203166002900480156104c15780601f10610496576101008083540402835291602001916104c1565b820191906000526020600020905b8154815290600101906020018083116104a457829003601f168201915b50505050508152602001600182018054600181600116156101000203166002900480601f0160208091040260200160405190810160405280929190818152602001828054600181600116156101000203166002900480156105635780601f1061053857610100808354040283529160200191610563565b820191906000526020600020905b81548152906001019060200180831161054657829003601f168201915b50505050508152602001600282018054600181600116156101000203166002900480601f0160208091040260200160405190810160405280929190818152602001828054600181600116156101000203166002900480156106055780601f106105da57610100808354040283529160200191610605565b820191906000526020600020905b8154815290600101906020018083116105e857829003601f168201915b50505050508152602001600382018054600181600116156101000203166002900480601f0160208091040260200160405190810160405280929190818152602001828054600181600116156101000203166002900480156106a75780601f1061067c576101008083540402835291602001916106a7565b820191906000526020600020905b81548152906001019060200180831161068a57829003601f168201915b50505050508152602001600482018054600181600116156101000203166002900480601f0160208091040260200160405190810160405280929190818152602001828054600181600116156101000203166002900480156107495780601f1061071e57610100808354040283529160200191610749565b820191906000526020600020905b81548152906001019060200180831161072c57829003601f168201915b50505050508152602001600582015481526020016006820154815260200160078201548152505090508a565b6000614380905090565b6040518060400160405280601581526020017f566f5461726f20476f7665726e6f7220416c706861000000000000000000000081525081565b600042600760003373ffffffffffffffffffffffffffffffffffffffff1673ffffffffffffffffffffffffffffffffffffffff16815260200190815260200160002060000154111561080d5760019050610812565b600090505b80610852576040517f08c379a000000000000000000000000000000000000000000000000000000000815260040161084990611da3565b60405180910390fd5b61085d338484611096565b505050565b60066020528060005260406000206000915054906101000a900460ff1681565b60056020528060005260406000206000915090505481565b600080600042600760003373ffffffffffffffffffffffffffffffffffffffff1673ffffffffffffffffffffffffffffffffffffffff1681526020019081526020016000206000015411156108f257600190506108f7565b600090505b600760003373ffffffffffffffffffffffffffffffffffffffff1673ffffffffffffffffffffffffffffffffffffffff168152602001908152602001600020600001544292509250509091565b600160009054906101000a900473ffffffffffffffffffffffffffffffffffffffff1681565b60006001905090565b600260009054906101000a900473ffffffffffffffffffffffffffffffffffffffff1681565b60008042600760003373ffffffffffffffffffffffffffffffffffffffff1673ffffffffffffffffffffffffffffffffffffffff1681526020019081526020016000206000015411156109ef57600190506109f4565b600090505b80610a34576040517f08c379a0000000000000000000000000000000000000000000000000000000008152600401610a2b90611da3565b60405180910390fd5b6000610a4743610a4261096a565b61136b565b90506000610a5c82610a57610775565b61136b565b9050600360008154809291906001019190505550610a786113c0565b60405180610140016040528060035481526020013373ffffffffffffffffffffffffffffffffffffffff1681526020016000815260200184815260200183815260200160008152602001600081526020016000151581526020016000151581526020018781525090508060046000836000015181526020019081526020016000206000820151816000015560208201518160010160006101000a81548173ffffffffffffffffffffffffffffffffffffffff021916908373ffffffffffffffffffffffffffffffffffffffff16021790555060408201518160020155606082015181600301556080820151816004015560a0820151816005015560c0820151816006015560e08201518160070160006101000a81548160ff0219169083151502179055506101008201518160070160016101000a81548160ff021916908315150217905550610120820151816008016000820151816000019080519060200190610be3929190611433565b506020820151816001019080519060200190610c00929190611433565b506040820151816002019080519060200190610c1d929190611433565b506060820151816003019080519060200190610c3a929190611433565b506080820151816004019080519060200190610c57929190611433565b5060a0820151816005015560c0820151816006015560e0820151816007015550509050506001600660008360000151815260200190815260200160002060006101000a81548160ff0219169083151502179055507fc2c021f5d73c63c481d336fbbafec58f694fc45095f00b02d2deb8cca59afe078160000151604051610cde9190611e5e565b60405180910390a18060000151945050505050919050565b600069152d02c7e14af6800000905090565b600080600760003373ffffffffffffffffffffffffffffffffffffffff1673ffffffffffffffffffffffffffffffffffffffff168152602001908152602001600020600001541415610eb157604051806020016040528060024201815250600760003373ffffffffffffffffffffffffffffffffffffffff1673ffffffffffffffffffffffffffffffffffffffff168152602001908152602001600020600082015181600001559050506000600160009054906101000a900473ffffffffffffffffffffffffffffffffffffffff1673ffffffffffffffffffffffffffffffffffffffff166323b872dd3033866040518463ffffffff1660e01b8152600401610e1393929190611c8b565b602060405180830381600087803b158015610e2d57600080fd5b505af1158015610e41573d6000803e3d6000fd5b505050506040513d601f19601f82011682018060405250610e659190810190611774565b905080610ea7576040517f08c379a0000000000000000000000000000000000000000000000000000000008152600401610e9e90611e03565b60405180910390fd5b6000915050610f66565b42600760003373ffffffffffffffffffffffffffffffffffffffff1673ffffffffffffffffffffffffffffffffffffffff1681526020019081526020016000206000015410610f035760019050610f66565b6040518060200160405280600a4201815250600760003373ffffffffffffffffffffffffffffffffffffffff1673ffffffffffffffffffffffffffffffffffffffff16815260200190815260200160002060008201518160000155905050600290505b919050565b6000809054906101000a900473ffffffffffffffffffffffffffffffffffffffff1681565b60035481565b610f9e6114b3565b6004600084815260200190815260200160002060100160008373ffffffffffffffffffffffffffffffffffffffff1673ffffffffffffffffffffffffffffffffffffffff1681526020019081526020016000206040518060600160405290816000820160009054906101000a900460ff161515151581526020016000820160019054906101000a900460ff161515151581526020016000820160029054906101000a90046bffffffffffffffffffffffff166bffffffffffffffffffffffff166bffffffffffffffffffffffff1681525050905092915050565b60076020528060005260406000206000915090508060000154905081565b600115156006600084815260200190815260200160002060009054906101000a900460ff161515146110fd576040517f08c379a00000000000000000000000000000000000000000000000000000000081526004016110f490611e23565b60405180910390fd5b600060046000848152602001908152602001600020905060008160100160008673ffffffffffffffffffffffffffffffffffffffff1673ffffffffffffffffffffffffffffffffffffffff1681526020019081526020016000209050600015158160000160009054906101000a900460ff161515146111b1576040517f08c379a00000000000000000000000000000000000000000000000000000000081526004016111a890611dc3565b60405180910390fd5b6000600160009054906101000a900473ffffffffffffffffffffffffffffffffffffffff1673ffffffffffffffffffffffffffffffffffffffff1663782d6fe18785600301546040518363ffffffff1660e01b8152600401611214929190611cc2565b60206040518083038186803b15801561122c57600080fd5b505afa158015611240573d6000803e3d6000fd5b505050506040513d601f19601f82011682018060405250611264919081019061187f565b90508315611295576112888360050154826bffffffffffffffffffffffff1661136b565b83600501819055506112ba565b6112b18360060154826bffffffffffffffffffffffff1661136b565b83600601819055505b60018260000160006101000a81548160ff021916908315150217905550838260000160016101000a81548160ff021916908315150217905550808260000160026101000a8154816bffffffffffffffffffffffff02191690836bffffffffffffffffffffffff1602179055507f877856338e13f63d0c36822ff0ef736b80934cd90574a3a5bc9262c39d217c468686868460405161135b9493929190611ceb565b60405180910390a1505050505050565b6000808284019050838110156113b6576040517f08c379a00000000000000000000000000000000000000000000000000000000081526004016113ad90611de3565b60405180910390fd5b8091505092915050565b60405180610140016040528060008152602001600073ffffffffffffffffffffffffffffffffffffffff168152602001600081526020016000815260200160008152602001600081526020016000815260200160001515815260200160001515815260200161142d6114e6565b81525090565b828054600181600116156101000203166002900490600052602060002090601f016020900481019282601f1061147457805160ff19168380011785556114a2565b828001600101855582156114a2579182015b828111156114a1578251825591602001919060010190611486565b5b5090506114af919061152b565b5090565b604051806060016040528060001515815260200160001515815260200160006bffffffffffffffffffffffff1681525090565b60405180610100016040528060608152602001606081526020016060815260200160608152602001606081526020016000815260200160008152602001600081525090565b61154d91905b80821115611549576000816000905550600101611531565b5090565b90565b60008135905061155f8161210e565b92915050565b60008135905061157481612125565b92915050565b60008151905061158981612125565b92915050565b600082601f8301126115a057600080fd5b81356115b36115ae82611f72565b611f45565b915080825260208301602083018583830111156115cf57600080fd5b6115da8382846120bb565b50505092915050565b600061010082840312156115f657600080fd5b611601610100611f45565b9050600082013567ffffffffffffffff81111561161d57600080fd5b6116298482850161158f565b600083015250602082013567ffffffffffffffff81111561164957600080fd5b6116558482850161158f565b602083015250604082013567ffffffffffffffff81111561167557600080fd5b6116818482850161158f565b604083015250606082013567ffffffffffffffff8111156116a157600080fd5b6116ad8482850161158f565b606083015250608082013567ffffffffffffffff8111156116cd57600080fd5b6116d98482850161158f565b60808301525060a06116ed84828501611721565b60a08301525060c061170184828501611721565b60c08301525060e061171584828501611721565b60e08301525092915050565b6000813590506117308161213c565b92915050565b60008151905061174581612153565b92915050565b60006020828403121561175d57600080fd5b600061176b84828501611550565b91505092915050565b60006020828403121561178657600080fd5b60006117948482850161157a565b91505092915050565b6000602082840312156117af57600080fd5b600082013567ffffffffffffffff8111156117c957600080fd5b6117d5848285016115e3565b91505092915050565b6000602082840312156117f057600080fd5b60006117fe84828501611721565b91505092915050565b6000806040838503121561181a57600080fd5b600061182885828601611721565b925050602061183985828601611550565b9150509250929050565b6000806040838503121561185657600080fd5b600061186485828601611721565b925050602061187585828601611565565b9150509250929050565b60006020828403121561189157600080fd5b600061189f84828501611736565b91505092915050565b6118b18161202b565b82525050565b6118c081611fcb565b82525050565b6118cf81611fdd565b82525050565b6118de81611fdd565b82525050565b6118ed8161203d565b82525050565b6118fc81612061565b82525050565b600061190d82611f9e565b6119178185611fa9565b93506119278185602086016120ca565b611930816120fd565b840191505092915050565b600061194682611f9e565b6119508185611fba565b93506119608185602086016120ca565b611969816120fd565b840191505092915050565b6000611981601f83611fba565b91507f75736572206973206e6f742063757272656e746c792076616c696461746564006000830152602082019050919050565b60006119c1602d83611fba565b91507f476f7665726e6f72416c7068613a3a5f63617374566f74653a20766f7465722060008301527f616c726561647920766f746564000000000000000000000000000000000000006020830152604082019050919050565b6000611a27601183611fba565b91507f6164646974696f6e206f766572666c6f770000000000000000000000000000006000830152602082019050919050565b6000611a67602483611fba565b91507f546f6b656e73206e6f74207472616e7366657272656420746f206d73672e736560008301527f6e646572000000000000000000000000000000000000000000000000000000006020830152604082019050919050565b6000611acd602a83611fba565b91507f476f7665726e6f72416c7068613a3a5f63617374566f74653a20766f74696e6760008301527f20697320636c6f736564000000000000000000000000000000000000000000006020830152604082019050919050565b606082016000820151611b3c60008501826118c6565b506020820151611b4f60208501826118c6565b506040820151611b626040850182611c61565b50505050565b6000610100830160008301518482036000860152611b868282611902565b91505060208301518482036020860152611ba08282611902565b91505060408301518482036040860152611bba8282611902565b91505060608301518482036060860152611bd48282611902565b91505060808301518482036080860152611bee8282611902565b91505060a0830151611c0360a0860182611c34565b5060c0830151611c1660c0860182611c34565b5060e0830151611c2960e0860182611c34565b508091505092915050565b611c3d81612009565b82525050565b611c4c81612009565b82525050565b611c5b816120a9565b82525050565b611c6a81612013565b82525050565b6000602082019050611c8560008301846118b7565b92915050565b6000606082019050611ca060008301866118b7565b611cad60208301856118a8565b611cba6040830184611c43565b949350505050565b6000604082019050611cd760008301856118b7565b611ce46020830184611c43565b9392505050565b6000608082019050611d0060008301876118b7565b611d0d6020830186611c43565b611d1a60408301856118d5565b611d276060830184611c52565b95945050505050565b6000602082019050611d4560008301846118d5565b92915050565b6000602082019050611d6060008301846118e4565b92915050565b6000602082019050611d7b60008301846118f3565b92915050565b60006020820190508181036000830152611d9b818461193b565b905092915050565b60006020820190508181036000830152611dbc81611974565b9050919050565b60006020820190508181036000830152611ddc816119b4565b9050919050565b60006020820190508181036000830152611dfc81611a1a565b9050919050565b60006020820190508181036000830152611e1c81611a5a565b9050919050565b60006020820190508181036000830152611e3c81611ac0565b9050919050565b6000606082019050611e586000830184611b26565b92915050565b6000602082019050611e736000830184611c43565b92915050565b600061014082019050611e8f600083018d611c43565b611e9c602083018c6118b7565b611ea9604083018b611c43565b611eb6606083018a611c43565b611ec36080830189611c43565b611ed060a0830188611c43565b611edd60c0830187611c43565b611eea60e08301866118d5565b611ef86101008301856118d5565b818103610120830152611f0b8184611b68565b90509b9a5050505050505050505050565b6000604082019050611f316000830185611c43565b611f3e6020830184611c43565b9392505050565b6000604051905081810181811067ffffffffffffffff82111715611f6857600080fd5b8060405250919050565b600067ffffffffffffffff821115611f8957600080fd5b601f19601f8301169050602081019050919050565b600081519050919050565b600082825260208201905092915050565b600082825260208201905092915050565b6000611fd682611fe9565b9050919050565b60008115159050919050565b600073ffffffffffffffffffffffffffffffffffffffff82169050919050565b6000819050919050565b60006bffffffffffffffffffffffff82169050919050565b600061203682612085565b9050919050565b60006120488261204f565b9050919050565b600061205a82611fe9565b9050919050565b600061206c82612073565b9050919050565b600061207e82611fe9565b9050919050565b600061209082612097565b9050919050565b60006120a282611fe9565b9050919050565b60006120b482612013565b9050919050565b82818337600083830152505050565b60005b838110156120e85780820151818401526020810190506120cd565b838111156120f7576000848401525b50505050565b6000601f19601f8301169050919050565b61211781611fcb565b811461212257600080fd5b50565b61212e81611fdd565b811461213957600080fd5b50565b61214581612009565b811461215057600080fd5b50565b61215c81612013565b811461216757600080fd5b5056fea365627a7a72315820f4351665daa8c41e487c659f8f7710160bdc14f04360fecf44218e7d49e2c3ae6c6578706572696d656e74616cf564736f6c63430005100040",
  "linkReferences": {},
  "deployedLinkReferences": {}
}