{
  "_format": "hh-sol-artifact-1",
  "contractName": "GovernorBravoDelegate",
  "sourceName": "contracts/GovernorBravoDelegate.sol",
  "abi": [
    {
      "anonymous": false,
      "inputs": [
        {
          "indexed": false,
          "internalType": "address",
          "name": "oldAdmin",
          "type": "address"
        },
        {
          "indexed": false,
          "internalType": "address",
          "name": "newAdmin",
          "type": "address"
        }
      ],
      "name": "NewAdmin",
      "type": "event"
    },
    {
      "anonymous": false,
      "inputs": [
        {
          "indexed": false,
          "internalType": "address",
          "name": "oldImplementation",
          "type": "address"
        },
        {
          "indexed": false,
          "internalType": "address",
          "name": "newImplementation",
          "type": "address"
        }
      ],
      "name": "NewImplementation",
      "type": "event"
    },
    {
      "anonymous": false,
      "inputs": [
        {
          "indexed": false,
          "internalType": "address",
          "name": "oldPendingAdmin",
          "type": "address"
        },
        {
          "indexed": false,
          "internalType": "address",
          "name": "newPendingAdmin",
          "type": "address"
        }
      ],
      "name": "NewPendingAdmin",
      "type": "event"
    },
    {
      "anonymous": false,
      "inputs": [
        {
          "indexed": false,
          "internalType": "uint256",
          "name": "id",
          "type": "uint256"
        }
      ],
      "name": "ProposalCanceled",
      "type": "event"
    },
    {
      "anonymous": false,
      "inputs": [
        {
          "indexed": false,
          "internalType": "uint256",
          "name": "id",
          "type": "uint256"
        },
        {
          "indexed": false,
          "internalType": "address",
          "name": "proposer",
          "type": "address"
        },
        {
          "indexed": false,
          "internalType": "address[]",
          "name": "targets",
          "type": "address[]"
        },
        {
          "indexed": false,
          "internalType": "uint256[]",
          "name": "values",
          "type": "uint256[]"
        },
        {
          "indexed": false,
          "internalType": "string[]",
          "name": "signatures",
          "type": "string[]"
        },
        {
          "indexed": false,
          "internalType": "bytes[]",
          "name": "calldatas",
          "type": "bytes[]"
        },
        {
          "indexed": false,
          "internalType": "uint256",
          "name": "startBlock",
          "type": "uint256"
        },
        {
          "indexed": false,
          "internalType": "uint256",
          "name": "endBlock",
          "type": "uint256"
        },
        {
          "indexed": false,
          "internalType": "string",
          "name": "description",
          "type": "string"
        }
      ],
      "name": "ProposalCreated",
      "type": "event"
    },
    {
      "anonymous": false,
      "inputs": [
        {
          "indexed": false,
          "internalType": "uint256",
          "name": "id",
          "type": "uint256"
        }
      ],
      "name": "ProposalExecuted",
      "type": "event"
    },
    {
      "anonymous": false,
      "inputs": [
        {
          "indexed": false,
          "internalType": "uint256",
          "name": "id",
          "type": "uint256"
        },
        {
          "indexed": false,
          "internalType": "uint256",
          "name": "eta",
          "type": "uint256"
        }
      ],
      "name": "ProposalQueued",
      "type": "event"
    },
    {
      "anonymous": false,
      "inputs": [
        {
          "indexed": false,
          "internalType": "uint256",
          "name": "oldProposalThreshold",
          "type": "uint256"
        },
        {
          "indexed": false,
          "internalType": "uint256",
          "name": "newProposalThreshold",
          "type": "uint256"
        }
      ],
      "name": "ProposalThresholdSet",
      "type": "event"
    },
    {
      "anonymous": false,
      "inputs": [
        {
          "indexed": true,
          "internalType": "address",
          "name": "voter",
          "type": "address"
        },
        {
          "indexed": false,
          "internalType": "uint256",
          "name": "proposalId",
          "type": "uint256"
        },
        {
          "indexed": false,
          "internalType": "uint8",
          "name": "support",
          "type": "uint8"
        },
        {
          "indexed": false,
          "internalType": "uint256",
          "name": "votes",
          "type": "uint256"
        },
        {
          "indexed": false,
          "internalType": "string",
          "name": "reason",
          "type": "string"
        }
      ],
      "name": "VoteCast",
      "type": "event"
    },
    {
      "anonymous": false,
      "inputs": [
        {
          "indexed": false,
          "internalType": "uint256",
          "name": "oldVotingDelay",
          "type": "uint256"
        },
        {
          "indexed": false,
          "internalType": "uint256",
          "name": "newVotingDelay",
          "type": "uint256"
        }
      ],
      "name": "VotingDelaySet",
      "type": "event"
    },
    {
      "anonymous": false,
      "inputs": [
        {
          "indexed": false,
          "internalType": "uint256",
          "name": "oldVotingPeriod",
          "type": "uint256"
        },
        {
          "indexed": false,
          "internalType": "uint256",
          "name": "newVotingPeriod",
          "type": "uint256"
        }
      ],
      "name": "VotingPeriodSet",
      "type": "event"
    },
    {
      "constant": true,
      "inputs": [],
      "name": "BALLOT_TYPEHASH",
      "outputs": [
        {
          "internalType": "bytes32",
          "name": "",
          "type": "bytes32"
        }
      ],
      "payable": false,
      "stateMutability": "view",
      "type": "function"
    },
    {
      "constant": true,
      "inputs": [],
      "name": "DOMAIN_TYPEHASH",
      "outputs": [
        {
          "internalType": "bytes32",
          "name": "",
          "type": "bytes32"
        }
      ],
      "payable": false,
      "stateMutability": "view",
      "type": "function"
    },
    {
      "constant": true,
      "inputs": [],
      "name": "MAX_PROPOSAL_THRESHOLD",
      "outputs": [
        {
          "internalType": "uint256",
          "name": "",
          "type": "uint256"
        }
      ],
      "payable": false,
      "stateMutability": "view",
      "type": "function"
    },
    {
      "constant": true,
      "inputs": [],
      "name": "MAX_VOTING_DELAY",
      "outputs": [
        {
          "internalType": "uint256",
          "name": "",
          "type": "uint256"
        }
      ],
      "payable": false,
      "stateMutability": "view",
      "type": "function"
    },
    {
      "constant": true,
      "inputs": [],
      "name": "MAX_VOTING_PERIOD",
      "outputs": [
        {
          "internalType": "uint256",
          "name": "",
          "type": "uint256"
        }
      ],
      "payable": false,
      "stateMutability": "view",
      "type": "function"
    },
    {
      "constant": true,
      "inputs": [],
      "name": "MIN_PROPOSAL_THRESHOLD",
      "outputs": [
        {
          "internalType": "uint256",
          "name": "",
          "type": "uint256"
        }
      ],
      "payable": false,
      "stateMutability": "view",
      "type": "function"
    },
    {
      "constant": true,
      "inputs": [],
      "name": "MIN_VOTING_DELAY",
      "outputs": [
        {
          "internalType": "uint256",
          "name": "",
          "type": "uint256"
        }
      ],
      "payable": false,
      "stateMutability": "view",
      "type": "function"
    },
    {
      "constant": true,
      "inputs": [],
      "name": "MIN_VOTING_PERIOD",
      "outputs": [
        {
          "internalType": "uint256",
          "name": "",
          "type": "uint256"
        }
      ],
      "payable": false,
      "stateMutability": "view",
      "type": "function"
    },
    {
      "constant": false,
      "inputs": [],
      "name": "_acceptAdmin",
      "outputs": [],
      "payable": false,
      "stateMutability": "nonpayable",
      "type": "function"
    },
    {
      "constant": false,
      "inputs": [
        {
          "internalType": "address",
          "name": "governorAlpha",
          "type": "address"
        }
      ],
      "name": "_initiate",
      "outputs": [],
      "payable": false,
      "stateMutability": "nonpayable",
      "type": "function"
    },
    {
      "constant": false,
      "inputs": [
        {
          "internalType": "address",
          "name": "newPendingAdmin",
          "type": "address"
        }
      ],
      "name": "_setPendingAdmin",
      "outputs": [],
      "payable": false,
      "stateMutability": "nonpayable",
      "type": "function"
    },
    {
      "constant": false,
      "inputs": [
        {
          "internalType": "uint256",
          "name": "newProposalThreshold",
          "type": "uint256"
        }
      ],
      "name": "_setProposalThreshold",
      "outputs": [],
      "payable": false,
      "stateMutability": "nonpayable",
      "type": "function"
    },
    {
      "constant": false,
      "inputs": [
        {
          "internalType": "uint256",
          "name": "newVotingDelay",
          "type": "uint256"
        }
      ],
      "name": "_setVotingDelay",
      "outputs": [],
      "payable": false,
      "stateMutability": "nonpayable",
      "type": "function"
    },
    {
      "constant": false,
      "inputs": [
        {
          "internalType": "uint256",
          "name": "newVotingPeriod",
          "type": "uint256"
        }
      ],
      "name": "_setVotingPeriod",
      "outputs": [],
      "payable": false,
      "stateMutability": "nonpayable",
      "type": "function"
    },
    {
      "constant": true,
      "inputs": [],
      "name": "admin",
      "outputs": [
        {
          "internalType": "address",
          "name": "",
          "type": "address"
        }
      ],
      "payable": false,
      "stateMutability": "view",
      "type": "function"
    },
    {
      "constant": false,
      "inputs": [
        {
          "internalType": "uint256",
          "name": "proposalId",
          "type": "uint256"
        }
      ],
      "name": "cancel",
      "outputs": [],
      "payable": false,
      "stateMutability": "nonpayable",
      "type": "function"
    },
    {
      "constant": false,
      "inputs": [
        {
          "internalType": "uint256",
          "name": "proposalId",
          "type": "uint256"
        },
        {
          "internalType": "uint8",
          "name": "support",
          "type": "uint8"
        }
      ],
      "name": "castVote",
      "outputs": [],
      "payable": false,
      "stateMutability": "nonpayable",
      "type": "function"
    },
    {
      "constant": false,
      "inputs": [
        {
          "internalType": "uint256",
          "name": "proposalId",
          "type": "uint256"
        },
        {
          "internalType": "uint8",
          "name": "support",
          "type": "uint8"
        },
        {
          "internalType": "uint8",
          "name": "v",
          "type": "uint8"
        },
        {
          "internalType": "bytes32",
          "name": "r",
          "type": "bytes32"
        },
        {
          "internalType": "bytes32",
          "name": "s",
          "type": "bytes32"
        }
      ],
      "name": "castVoteBySig",
      "outputs": [],
      "payable": false,
      "stateMutability": "nonpayable",
      "type": "function"
    },
    {
      "constant": false,
      "inputs": [
        {
          "internalType": "uint256",
          "name": "proposalId",
          "type": "uint256"
        },
        {
          "internalType": "uint8",
          "name": "support",
          "type": "uint8"
        },
        {
          "internalType": "string",
          "name": "reason",
          "type": "string"
        }
      ],
      "name": "castVoteWithReason",
      "outputs": [],
      "payable": false,
      "stateMutability": "nonpayable",
      "type": "function"
    },
    {
      "constant": true,
      "inputs": [],
      "name": "comp",
      "outputs": [
        {
          "internalType": "contract CompInterface",
          "name": "",
          "type": "address"
        }
      ],
      "payable": false,
      "stateMutability": "view",
      "type": "function"
    },
    {
      "constant": false,
      "inputs": [
        {
          "internalType": "uint256",
          "name": "proposalId",
          "type": "uint256"
        }
      ],
      "name": "execute",
      "outputs": [],
      "payable": true,
      "stateMutability": "payable",
      "type": "function"
    },
    {
      "constant": true,
      "inputs": [
        {
          "internalType": "uint256",
          "name": "proposalId",
          "type": "uint256"
        }
      ],
      "name": "getActions",
      "outputs": [
        {
          "internalType": "address[]",
          "name": "targets",
          "type": "address[]"
        },
        {
          "internalType": "uint256[]",
          "name": "values",
          "type": "uint256[]"
        },
        {
          "internalType": "string[]",
          "name": "signatures",
          "type": "string[]"
        },
        {
          "internalType": "bytes[]",
          "name": "calldatas",
          "type": "bytes[]"
        }
      ],
      "payable": false,
      "stateMutability": "view",
      "type": "function"
    },
    {
      "constant": true,
      "inputs": [
        {
          "internalType": "uint256",
          "name": "proposalId",
          "type": "uint256"
        },
        {
          "internalType": "address",
          "name": "voter",
          "type": "address"
        }
      ],
      "name": "getReceipt",
      "outputs": [
        {
          "components": [
            {
              "internalType": "bool",
              "name": "hasVoted",
              "type": "bool"
            },
            {
              "internalType": "uint8",
              "name": "support",
              "type": "uint8"
            },
            {
              "internalType": "uint96",
              "name": "votes",
              "type": "uint96"
            }
          ],
          "internalType": "struct GovernorBravoDelegateStorageV1.Receipt",
          "name": "",
          "type": "tuple"
        }
      ],
      "payable": false,
      "stateMutability": "view",
      "type": "function"
    },
    {
      "constant": true,
      "inputs": [],
      "name": "implementation",
      "outputs": [
        {
          "internalType": "address",
          "name": "",
          "type": "address"
        }
      ],
      "payable": false,
      "stateMutability": "view",
      "type": "function"
    },
    {
      "constant": true,
      "inputs": [],
      "name": "initialProposalId",
      "outputs": [
        {
          "internalType": "uint256",
          "name": "",
          "type": "uint256"
        }
      ],
      "payable": false,
      "stateMutability": "view",
      "type": "function"
    },
    {
      "constant": false,
      "inputs": [
        {
          "internalType": "address",
          "name": "timelock_",
          "type": "address"
        },
        {
          "internalType": "address",
          "name": "comp_",
          "type": "address"
        },
        {
          "internalType": "uint256",
          "name": "votingPeriod_",
          "type": "uint256"
        },
        {
          "internalType": "uint256",
          "name": "votingDelay_",
          "type": "uint256"
        },
        {
          "internalType": "uint256",
          "name": "proposalThreshold_",
          "type": "uint256"
        }
      ],
      "name": "initialize",
      "outputs": [],
      "payable": false,
      "stateMutability": "nonpayable",
      "type": "function"
    },
    {
      "constant": true,
      "inputs": [
        {
          "internalType": "address",
          "name": "",
          "type": "address"
        }
      ],
      "name": "latestProposalIds",
      "outputs": [
        {
          "internalType": "uint256",
          "name": "",
          "type": "uint256"
        }
      ],
      "payable": false,
      "stateMutability": "view",
      "type": "function"
    },
    {
      "constant": true,
      "inputs": [],
      "name": "name",
      "outputs": [
        {
          "internalType": "string",
          "name": "",
          "type": "string"
        }
      ],
      "payable": false,
      "stateMutability": "view",
      "type": "function"
    },
    {
      "constant": true,
      "inputs": [],
      "name": "pendingAdmin",
      "outputs": [
        {
          "internalType": "address",
          "name": "",
          "type": "address"
        }
      ],
      "payable": false,
      "stateMutability": "view",
      "type": "function"
    },
    {
      "constant": true,
      "inputs": [],
      "name": "proposalCount",
      "outputs": [
        {
          "internalType": "uint256",
          "name": "",
          "type": "uint256"
        }
      ],
      "payable": false,
      "stateMutability": "view",
      "type": "function"
    },
    {
      "constant": true,
      "inputs": [],
      "name": "proposalMaxOperations",
      "outputs": [
        {
          "internalType": "uint256",
          "name": "",
          "type": "uint256"
        }
      ],
      "payable": false,
      "stateMutability": "view",
      "type": "function"
    },
    {
      "constant": true,
      "inputs": [],
      "name": "proposalThreshold",
      "outputs": [
        {
          "internalType": "uint256",
          "name": "",
          "type": "uint256"
        }
      ],
      "payable": false,
      "stateMutability": "view",
      "type": "function"
    },
    {
      "constant": true,
      "inputs": [
        {
          "internalType": "uint256",
          "name": "",
          "type": "uint256"
        }
      ],
      "name": "proposals",
      "outputs": [
        {
          "internalType": "uint256",
          "name": "id",
          "type": "uint256"
        },
        {
          "internalType": "address",
          "name": "proposer",
          "type": "address"
        },
        {
          "internalType": "uint256",
          "name": "eta",
          "type": "uint256"
        },
        {
          "internalType": "uint256",
          "name": "startBlock",
          "type": "uint256"
        },
        {
          "internalType": "uint256",
          "name": "endBlock",
          "type": "uint256"
        },
        {
          "internalType": "uint256",
          "name": "forVotes",
          "type": "uint256"
        },
        {
          "internalType": "uint256",
          "name": "againstVotes",
          "type": "uint256"
        },
        {
          "internalType": "uint256",
          "name": "abstainVotes",
          "type": "uint256"
        },
        {
          "internalType": "bool",
          "name": "canceled",
          "type": "bool"
        },
        {
          "internalType": "bool",
          "name": "executed",
          "type": "bool"
        }
      ],
      "payable": false,
      "stateMutability": "view",
      "type": "function"
    },
    {
      "constant": false,
      "inputs": [
        {
          "internalType": "address[]",
          "name": "targets",
          "type": "address[]"
        },
        {
          "internalType": "uint256[]",
          "name": "values",
          "type": "uint256[]"
        },
        {
          "internalType": "string[]",
          "name": "signatures",
          "type": "string[]"
        },
        {
          "internalType": "bytes[]",
          "name": "calldatas",
          "type": "bytes[]"
        },
        {
          "internalType": "string",
          "name": "description",
          "type": "string"
        }
      ],
      "name": "propose",
      "outputs": [
        {
          "internalType": "uint256",
          "name": "",
          "type": "uint256"
        }
      ],
      "payable": false,
      "stateMutability": "nonpayable",
      "type": "function"
    },
    {
      "constant": false,
      "inputs": [
        {
          "internalType": "uint256",
          "name": "proposalId",
          "type": "uint256"
        }
      ],
      "name": "queue",
      "outputs": [],
      "payable": false,
      "stateMutability": "nonpayable",
      "type": "function"
    },
    {
      "constant": true,
      "inputs": [],
      "name": "quorumVotes",
      "outputs": [
        {
          "internalType": "uint256",
          "name": "",
          "type": "uint256"
        }
      ],
      "payable": false,
      "stateMutability": "view",
      "type": "function"
    },
    {
      "constant": true,
      "inputs": [
        {
          "internalType": "uint256",
          "name": "proposalId",
          "type": "uint256"
        }
      ],
      "name": "state",
      "outputs": [
        {
          "internalType": "enum GovernorBravoDelegateStorageV1.ProposalState",
          "name": "",
          "type": "uint8"
        }
      ],
      "payable": false,
      "stateMutability": "view",
      "type": "function"
    },
    {
      "constant": true,
      "inputs": [],
      "name": "timelock",
      "outputs": [
        {
          "internalType": "contract TimelockInterface",
          "name": "",
          "type": "address"
        }
      ],
      "payable": false,
      "stateMutability": "view",
      "type": "function"
    },
    {
      "constant": true,
      "inputs": [],
      "name": "votingDelay",
      "outputs": [
        {
          "internalType": "uint256",
          "name": "",
          "type": "uint256"
        }
      ],
      "payable": false,
      "stateMutability": "view",
      "type": "function"
    },
    {
      "constant": true,
      "inputs": [],
      "name": "votingPeriod",
      "outputs": [
        {
          "internalType": "uint256",
          "name": "",
          "type": "uint256"
        }
      ],
      "payable": false,
      "stateMutability": "view",
      "type": "function"
    }
  ],
  "bytecode": "0x608060405234801561001057600080fd5b506167f980620000216000396000f3fe60806040526004361061023b5760003560e01c8063791f5d231161012e578063da95691a116100ab578063e9c714f21161006f578063e9c714f214610885578063f851a4401461089c578063f9d28b80146108c7578063fc4eee42146108f0578063fe0d94c11461091b5761023b565b8063da95691a1461078c578063ddf0b009146107c9578063deaaa7cc146107f2578063e23a9a521461081d578063e48083fe1461085a5761023b565b8063b58131b0116100f2578063b58131b0146106b9578063b71d1a0c146106e4578063d13f90b41461070d578063d33219b414610736578063da35c664146107615761023b565b8063791f5d23146105e45780637b3c71d31461060f5780637bdbe4d014610638578063a64e024a14610663578063b11262631461068e5761023b565b806324bc1a64116101bc5780633bccf4fd116101805780633bccf4fd146105015780633e4f49e61461052a57806340e58ee51461056757806356781388146105905780635c60da1b146105b95761023b565b806324bc1a641461041557806325fd935a14610440578063267822471461046b578063328dd982146104965780633932abb1146104d65761023b565b806317977c611161020357806317977c611461033057806317ba1b8b1461036d5780631dfb1b5a1461039657806320606b70146103bf578063215809ca146103ea5761023b565b8063013cf08b1461024057806302a251a31461028657806306fdde03146102b15780630ea2d98c146102dc578063109d0af814610305575b600080fd5b34801561024c57600080fd5b50610267600480360361026291908101906140b2565b610937565b60405161027d9a99989796959493929190616133565b60405180910390f35b34801561029257600080fd5b5061029b6109c5565b6040516102a89190616068565b60405180910390f35b3480156102bd57600080fd5b506102c66109cb565b6040516102d39190615bab565b60405180910390f35b3480156102e857600080fd5b5061030360048036036102fe91908101906140b2565b610a04565b005b34801561031157600080fd5b5061031a610b34565b6040516103279190615b5a565b60405180910390f35b34801561033c57600080fd5b5061035760048036036103529190810190613e90565b610b5a565b6040516103649190616068565b60405180910390f35b34801561037957600080fd5b50610394600480360361038f91908101906140b2565b610b72565b005b3480156103a257600080fd5b506103bd60048036036103b891908101906140b2565b610cb1565b005b3480156103cb57600080fd5b506103d4610ddf565b6040516103e19190615a7e565b60405180910390f35b3480156103f657600080fd5b506103ff610df6565b60405161040c9190616068565b60405180910390f35b34801561042157600080fd5b5061042a610dfc565b6040516104379190616068565b60405180910390f35b34801561044c57600080fd5b50610455610e0a565b6040516104629190616068565b60405180910390f35b34801561047757600080fd5b50610480610e18565b60405161048d91906158c5565b60405180910390f35b3480156104a257600080fd5b506104bd60048036036104b891908101906140b2565b610e3e565b6040516104cd9493929190615a1d565b60405180910390f35b3480156104e257600080fd5b506104eb61111b565b6040516104f89190616068565b60405180910390f35b34801561050d57600080fd5b50610528600480360361052391908101906141e8565b611121565b005b34801561053657600080fd5b50610551600480360361054c91908101906140b2565b611341565b60405161055e9190615b90565b60405180910390f35b34801561057357600080fd5b5061058e600480360361058991908101906140b2565b61152a565b005b34801561059c57600080fd5b506105b760048036036105b29190810190614140565b6118be565b005b3480156105c557600080fd5b506105ce61191e565b6040516105db91906158c5565b60405180910390f35b3480156105f057600080fd5b506105f9611944565b6040516106069190616068565b60405180910390f35b34801561061b57600080fd5b506106366004803603610631919081019061417c565b611952565b005b34801561064457600080fd5b5061064d6119b8565b60405161065a9190616068565b60405180910390f35b34801561066f57600080fd5b506106786119bd565b6040516106859190616068565b60405180910390f35b34801561069a57600080fd5b506106a36119c4565b6040516106b09190616068565b60405180910390f35b3480156106c557600080fd5b506106ce6119ca565b6040516106db9190616068565b60405180910390f35b3480156106f057600080fd5b5061070b60048036036107069190810190613e90565b6119d0565b005b34801561071957600080fd5b50610734600480360361072f9190810190613eb9565b611b04565b005b34801561074257600080fd5b5061074b611eab565b6040516107589190615b75565b60405180910390f35b34801561076d57600080fd5b50610776611ed1565b6040516107839190616068565b60405180910390f35b34801561079857600080fd5b506107b360048036036107ae9190810190613f30565b611ed7565b6040516107c09190616068565b60405180910390f35b3480156107d557600080fd5b506107f060048036036107eb91908101906140b2565b6124e6565b005b3480156107fe57600080fd5b50610807612836565b6040516108149190615a7e565b60405180910390f35b34801561082957600080fd5b50610844600480360361083f9190810190614104565b61284d565b604051610851919061604d565b60405180910390f35b34801561086657600080fd5b5061086f612931565b60405161087c9190616068565b60405180910390f35b34801561089157600080fd5b5061089a612936565b005b3480156108a857600080fd5b506108b1612ba9565b6040516108be91906158c5565b60405180910390f35b3480156108d357600080fd5b506108ee60048036036108e99190810190613e90565b612bce565b005b3480156108fc57600080fd5b50610905612db6565b6040516109129190616068565b60405180910390f35b610935600480360361093091908101906140b2565b612dbc565b005b600a6020528060005260406000206000915090508060000154908060010160009054906101000a900473ffffffffffffffffffffffffffffffffffffffff169080600201549080600701549080600801549080600901549080600a01549080600b01549080600c0160009054906101000a900460ff169080600c0160019054906101000a900460ff1690508a565b60045481565b6040518060400160405280601781526020017f436f6d706f756e6420476f7665726e6f7220427261766f00000000000000000081525081565b6000809054906101000a900473ffffffffffffffffffffffffffffffffffffffff1673ffffffffffffffffffffffffffffffffffffffff163373ffffffffffffffffffffffffffffffffffffffff1614610a93576040517f08c379a0000000000000000000000000000000000000000000000000000000008152600401610a8a90615c4d565b60405180910390fd5b6116808110158015610aa8575062013b008111155b610ae7576040517f08c379a0000000000000000000000000000000000000000000000000000000008152600401610ade90615ccd565b60405180910390fd5b60006004549050816004819055507f7e3f7f0708a84de9203036abaa450dccc85ad5ff52f78c170f3edb55cf5e882881600454604051610b289291906161cf565b60405180910390a15050565b600960009054906101000a900473ffffffffffffffffffffffffffffffffffffffff1681565b600b6020528060005260406000206000915090505481565b6000809054906101000a900473ffffffffffffffffffffffffffffffffffffffff1673ffffffffffffffffffffffffffffffffffffffff163373ffffffffffffffffffffffffffffffffffffffff1614610c01576040517f08c379a0000000000000000000000000000000000000000000000000000000008152600401610bf890615fcd565b60405180910390fd5b690a968163f0a57b4000008110158015610c25575069152d02c7e14af68000008111155b610c64576040517f08c379a0000000000000000000000000000000000000000000000000000000008152600401610c5b90615e0d565b60405180910390fd5b60006005549050816005819055507fccb45da8d5717e6c4544694297c4ba5cf151d455c9bb0ed4fc7a38411bc0546181600554604051610ca59291906161cf565b60405180910390a15050565b6000809054906101000a900473ffffffffffffffffffffffffffffffffffffffff1673ffffffffffffffffffffffffffffffffffffffff163373ffffffffffffffffffffffffffffffffffffffff1614610d40576040517f08c379a0000000000000000000000000000000000000000000000000000000008152600401610d3790615c8d565b60405180910390fd5b60018110158015610d535750619d808111155b610d92576040517f08c379a0000000000000000000000000000000000000000000000000000000008152600401610d8990615d2d565b60405180910390fd5b60006003549050816003819055507fc565b045403dc03c2eea82b81a0465edad9e2e7fc4d97e11421c209da93d7a9381600354604051610dd39291906161cf565b60405180910390a15050565b604051610deb906158b0565b604051809103902081565b61168081565b6954b40b1f852bda00000081565b69152d02c7e14af680000081565b600160009054906101000a900473ffffffffffffffffffffffffffffffffffffffff1681565b6060806060806000600a600087815260200190815260200160002090508060030181600401826005018360060183805480602002602001604051908101604052809291908181526020018280548015610eec57602002820191906000526020600020905b8160009054906101000a900473ffffffffffffffffffffffffffffffffffffffff1673ffffffffffffffffffffffffffffffffffffffff1681526020019060010190808311610ea2575b5050505050935082805480602002602001604051908101604052809291908181526020018280548015610f3e57602002820191906000526020600020905b815481526020019060010190808311610f2a575b5050505050925081805480602002602001604051908101604052809291908181526020016000905b82821015611022578382906000526020600020018054600181600116156101000203166002900480601f01602080910402602001604051908101604052809291908181526020018280546001816001161561010002031660029004801561100e5780601f10610fe35761010080835404028352916020019161100e565b820191906000526020600020905b815481529060010190602001808311610ff157829003601f168201915b505050505081526020019060010190610f66565b50505050915080805480602002602001604051908101604052809291908181526020016000905b82821015611105578382906000526020600020018054600181600116156101000203166002900480601f0160208091040260200160405190810160405280929190818152602001828054600181600116156101000203166002900480156110f15780601f106110c6576101008083540402835291602001916110f1565b820191906000526020600020905b8154815290600101906020018083116110d457829003601f168201915b505050505081526020019060010190611049565b5050505090509450945094509450509193509193565b60035481565b600060405161112f906158b0565b60405180910390206040518060400160405280601781526020017f436f6d706f756e6420476f7665726e6f7220427261766f0000000000000000008152508051906020012061117c61300a565b306040516020016111909493929190615a99565b60405160208183030381529060405280519060200120905060006040516111b690615864565b604051809103902087876040516020016111d293929190615ade565b604051602081830303815290604052805190602001209050600082826040516020016111ff929190615879565b60405160208183030381529060405280519060200120905060006001828888886040516000815260200160405260405161123c9493929190615b15565b6020604051602081039080840390855afa15801561125e573d6000803e3d6000fd5b505050602060405103519050600073ffffffffffffffffffffffffffffffffffffffff168173ffffffffffffffffffffffffffffffffffffffff1614156112da576040517f08c379a00000000000000000000000000000000000000000000000000000000081526004016112d190615d8d565b60405180910390fd5b8073ffffffffffffffffffffffffffffffffffffffff167fb8e138887d0aa13bab447e82de9d5c1777041ecd21ca36ba824ff1e6c07ddda48a8a61131f858e8e613017565b60405161132e93929190616246565b60405180910390a2505050505050505050565b60008160075410158015611356575060065482115b611395576040517f08c379a000000000000000000000000000000000000000000000000000000000815260040161138c90615fed565b60405180910390fd5b6000600a6000848152602001908152602001600020905080600c0160009054906101000a900460ff16156113cd576002915050611525565b806007015443116113e2576000915050611525565b806008015443116113f7576001915050611525565b80600a0154816009015411158061141b57506954b40b1f852bda0000008160090154105b1561142a576003915050611525565b600081600201541415611441576004915050611525565b80600c0160019054906101000a900460ff1615611462576007915050611525565b61150f8160020154600860009054906101000a900473ffffffffffffffffffffffffffffffffffffffff1673ffffffffffffffffffffffffffffffffffffffff1663c1a287e26040518163ffffffff1660e01b815260040160206040518083038186803b1580156114d257600080fd5b505afa1580156114e6573d6000803e3d6000fd5b505050506040513d601f19601f8201168201806040525061150a91908101906140db565b613341565b421061151f576006915050611525565b60059150505b919050565b60078081111561153657fe5b61153f82611341565b600781111561154a57fe5b141561158b576040517f08c379a000000000000000000000000000000000000000000000000000000000815260040161158290615fad565b60405180910390fd5b6000600a600083815260200190815260200160002090508060010160009054906101000a900473ffffffffffffffffffffffffffffffffffffffff1673ffffffffffffffffffffffffffffffffffffffff163373ffffffffffffffffffffffffffffffffffffffff1614806116e95750600554600960009054906101000a900473ffffffffffffffffffffffffffffffffffffffff1673ffffffffffffffffffffffffffffffffffffffff1663782d6fe18360010160009054906101000a900473ffffffffffffffffffffffffffffffffffffffff1661166c436001613396565b6040518363ffffffff1660e01b8152600401611689929190615932565b60206040518083038186803b1580156116a157600080fd5b505afa1580156116b5573d6000803e3d6000fd5b505050506040513d601f19601f820116820180604052506116d9919081019061425f565b6bffffffffffffffffffffffff16105b611728576040517f08c379a000000000000000000000000000000000000000000000000000000000815260040161171f90615eed565b60405180910390fd5b600181600c0160006101000a81548160ff02191690831515021790555060008090505b816003018054905081101561188257600860009054906101000a900473ffffffffffffffffffffffffffffffffffffffff1673ffffffffffffffffffffffffffffffffffffffff1663591fcdfe8360030183815481106117a757fe5b9060005260206000200160009054906101000a900473ffffffffffffffffffffffffffffffffffffffff168460040184815481106117e157fe5b90600052602060002001548560050185815481106117fb57fe5b9060005260206000200186600601868154811061181457fe5b9060005260206000200187600201546040518663ffffffff1660e01b81526004016118439594939291906159bc565b600060405180830381600087803b15801561185d57600080fd5b505af1158015611871573d6000803e3d6000fd5b50505050808060010191505061174b565b507f789cf55be980739dad1d0699b93b58e806b51c9d96619bfa8fe0a28abaa7b30c826040516118b29190616068565b60405180910390a15050565b3373ffffffffffffffffffffffffffffffffffffffff167fb8e138887d0aa13bab447e82de9d5c1777041ecd21ca36ba824ff1e6c07ddda48383611903338787613017565b60405161191293929190616246565b60405180910390a25050565b600260009054906101000a900473ffffffffffffffffffffffffffffffffffffffff1681565b690a968163f0a57b40000081565b3373ffffffffffffffffffffffffffffffffffffffff167fb8e138887d0aa13bab447e82de9d5c1777041ecd21ca36ba824ff1e6c07ddda48585611997338989613017565b86866040516119aa9594939291906161f8565b60405180910390a250505050565b600a81565b62013b0081565b619d8081565b60055481565b6000809054906101000a900473ffffffffffffffffffffffffffffffffffffffff1673ffffffffffffffffffffffffffffffffffffffff163373ffffffffffffffffffffffffffffffffffffffff1614611a5f576040517f08c379a0000000000000000000000000000000000000000000000000000000008152600401611a5690615c0d565b60405180910390fd5b6000600160009054906101000a900473ffffffffffffffffffffffffffffffffffffffff16905081600160006101000a81548173ffffffffffffffffffffffffffffffffffffffff021916908373ffffffffffffffffffffffffffffffffffffffff1602179055507fca4f2f25d0898edd99413412fb94012f9e54ec8142f9b093e7720646a95b16a98183604051611af8929190615909565b60405180910390a15050565b600073ffffffffffffffffffffffffffffffffffffffff16600860009054906101000a900473ffffffffffffffffffffffffffffffffffffffff1673ffffffffffffffffffffffffffffffffffffffff1614611b95576040517f08c379a0000000000000000000000000000000000000000000000000000000008152600401611b8c90615bed565b60405180910390fd5b6000809054906101000a900473ffffffffffffffffffffffffffffffffffffffff1673ffffffffffffffffffffffffffffffffffffffff163373ffffffffffffffffffffffffffffffffffffffff1614611c24576040517f08c379a0000000000000000000000000000000000000000000000000000000008152600401611c1b90615ded565b60405180910390fd5b600073ffffffffffffffffffffffffffffffffffffffff168573ffffffffffffffffffffffffffffffffffffffff161415611c94576040517f08c379a0000000000000000000000000000000000000000000000000000000008152600401611c8b90615c6d565b60405180910390fd5b600073ffffffffffffffffffffffffffffffffffffffff168473ffffffffffffffffffffffffffffffffffffffff161415611d04576040517f08c379a0000000000000000000000000000000000000000000000000000000008152600401611cfb90615ecd565b60405180910390fd5b6116808310158015611d19575062013b008311155b611d58576040517f08c379a0000000000000000000000000000000000000000000000000000000008152600401611d4f9061600d565b60405180910390fd5b60018210158015611d6b5750619d808211155b611daa576040517f08c379a0000000000000000000000000000000000000000000000000000000008152600401611da190615dad565b60405180910390fd5b690a968163f0a57b4000008110158015611dce575069152d02c7e14af68000008111155b611e0d576040517f08c379a0000000000000000000000000000000000000000000000000000000008152600401611e0490615d4d565b60405180910390fd5b84600860006101000a81548173ffffffffffffffffffffffffffffffffffffffff021916908373ffffffffffffffffffffffffffffffffffffffff16021790555083600960006101000a81548173ffffffffffffffffffffffffffffffffffffffff021916908373ffffffffffffffffffffffffffffffffffffffff1602179055508260048190555081600381905550806005819055505050505050565b600860009054906101000a900473ffffffffffffffffffffffffffffffffffffffff1681565b60075481565b6000806006541415611f1e576040517f08c379a0000000000000000000000000000000000000000000000000000000008152600401611f1590615cad565b60405180910390fd5b600554600960009054906101000a900473ffffffffffffffffffffffffffffffffffffffff1673ffffffffffffffffffffffffffffffffffffffff1663782d6fe133611f6b436001613396565b6040518363ffffffff1660e01b8152600401611f889291906158e0565b60206040518083038186803b158015611fa057600080fd5b505afa158015611fb4573d6000803e3d6000fd5b505050506040513d601f19601f82011682018060405250611fd8919081019061425f565b6bffffffffffffffffffffffff1611612026576040517f08c379a000000000000000000000000000000000000000000000000000000000815260040161201d90615f8d565b60405180910390fd5b84518651148015612038575083518651145b8015612045575082518651145b612084576040517f08c379a000000000000000000000000000000000000000000000000000000000815260040161207b90615dcd565b60405180910390fd5b6000865114156120c9576040517f08c379a00000000000000000000000000000000000000000000000000000000081526004016120c090615e8d565b60405180910390fd5b600a8651111561210e576040517f08c379a000000000000000000000000000000000000000000000000000000000815260040161210590615f0d565b60405180910390fd5b6000600b60003373ffffffffffffffffffffffffffffffffffffffff1673ffffffffffffffffffffffffffffffffffffffff1681526020019081526020016000205490506000811461221d57600061216582611341565b90506001600781111561217457fe5b81600781111561218057fe5b14156121c1576040517f08c379a00000000000000000000000000000000000000000000000000000000081526004016121b890615f4d565b60405180910390fd5b600060078111156121ce57fe5b8160078111156121da57fe5b141561221b576040517f08c379a000000000000000000000000000000000000000000000000000000000815260040161221290615f2d565b60405180910390fd5b505b600061222b43600354613341565b9050600061223b82600454613341565b90506007600081548092919060010191905055506122576135bc565b604051806101c0016040528060075481526020013373ffffffffffffffffffffffffffffffffffffffff168152602001600081526020018b81526020018a815260200189815260200188815260200184815260200183815260200160008152602001600081526020016000815260200160001515815260200160001515815250905080600a6000836000015181526020019081526020016000206000820151816000015560208201518160010160006101000a81548173ffffffffffffffffffffffffffffffffffffffff021916908373ffffffffffffffffffffffffffffffffffffffff160217905550604082015181600201556060820151816003019080519060200190612368929190613645565b5060808201518160040190805190602001906123859291906136cf565b5060a08201518160050190805190602001906123a292919061371c565b5060c08201518160060190805190602001906123bf92919061377c565b5060e082015181600701556101008201518160080155610120820151816009015561014082015181600a015561016082015181600b015561018082015181600c0160006101000a81548160ff0219169083151502179055506101a082015181600c0160016101000a81548160ff0219169083151502179055509050508060000151600b6000836020015173ffffffffffffffffffffffffffffffffffffffff1673ffffffffffffffffffffffffffffffffffffffff168152602001908152602001600020819055507f7d84a6263ae0d98d3329bd7b46bb4e8d6f98cd35a7adb45c274c8b7fd5ebd5e08160000151338c8c8c8c89898e6040516124ca99989796959493929190616083565b60405180910390a1806000015194505050505095945050505050565b600460078111156124f357fe5b6124fc82611341565b600781111561250757fe5b14612547576040517f08c379a000000000000000000000000000000000000000000000000000000000815260040161253e90615e2d565b60405180910390fd5b6000600a60008381526020019081526020016000209050600061260942600860009054906101000a900473ffffffffffffffffffffffffffffffffffffffff1673ffffffffffffffffffffffffffffffffffffffff16636a42b8f86040518163ffffffff1660e01b815260040160206040518083038186803b1580156125cc57600080fd5b505afa1580156125e0573d6000803e3d6000fd5b505050506040513d601f19601f8201168201806040525061260491908101906140db565b613341565b905060008090505b82600301805490508110156127ee576127e183600301828154811061263257fe5b9060005260206000200160009054906101000a900473ffffffffffffffffffffffffffffffffffffffff1684600401838154811061266c57fe5b906000526020600020015485600501848154811061268657fe5b906000526020600020018054600181600116156101000203166002900480601f0160208091040260200160405190810160405280929190818152602001828054600181600116156101000203166002900480156127245780601f106126f957610100808354040283529160200191612724565b820191906000526020600020905b81548152906001019060200180831161270757829003601f168201915b505050505086600601858154811061273857fe5b906000526020600020018054600181600116156101000203166002900480601f0160208091040260200160405190810160405280929190818152602001828054600181600116156101000203166002900480156127d65780601f106127ab576101008083540402835291602001916127d6565b820191906000526020600020905b8154815290600101906020018083116127b957829003601f168201915b5050505050866133e6565b8080600101915050612611565b508082600201819055507f9a2e42fd6722813d69113e7d0079d3d940171428df7373df9c7f7617cfda289283826040516128299291906161cf565b60405180910390a1505050565b60405161284290615864565b604051809103902081565b6128556137dc565b600a6000848152602001908152602001600020600d0160008373ffffffffffffffffffffffffffffffffffffffff1673ffffffffffffffffffffffffffffffffffffffff1681526020019081526020016000206040518060600160405290816000820160009054906101000a900460ff161515151581526020016000820160019054906101000a900460ff1660ff1660ff1681526020016000820160029054906101000a90046bffffffffffffffffffffffff166bffffffffffffffffffffffff166bffffffffffffffffffffffff1681525050905092915050565b600181565b600160009054906101000a900473ffffffffffffffffffffffffffffffffffffffff1673ffffffffffffffffffffffffffffffffffffffff163373ffffffffffffffffffffffffffffffffffffffff161480156129c05750600073ffffffffffffffffffffffffffffffffffffffff163373ffffffffffffffffffffffffffffffffffffffff1614155b6129ff576040517f08c379a00000000000000000000000000000000000000000000000000000000081526004016129f690615ead565b60405180910390fd5b60008060009054906101000a900473ffffffffffffffffffffffffffffffffffffffff1690506000600160009054906101000a900473ffffffffffffffffffffffffffffffffffffffff169050600160009054906101000a900473ffffffffffffffffffffffffffffffffffffffff166000806101000a81548173ffffffffffffffffffffffffffffffffffffffff021916908373ffffffffffffffffffffffffffffffffffffffff1602179055506000600160006101000a81548173ffffffffffffffffffffffffffffffffffffffff021916908373ffffffffffffffffffffffffffffffffffffffff1602179055507ff9ffabca9c8276e99321725bcb43fb076a6c66a54b7f21c4e8146d8519b417dc826000809054906101000a900473ffffffffffffffffffffffffffffffffffffffff16604051612b42929190615909565b60405180910390a17fca4f2f25d0898edd99413412fb94012f9e54ec8142f9b093e7720646a95b16a981600160009054906101000a900473ffffffffffffffffffffffffffffffffffffffff16604051612b9d929190615909565b60405180910390a15050565b6000809054906101000a900473ffffffffffffffffffffffffffffffffffffffff1681565b6000809054906101000a900473ffffffffffffffffffffffffffffffffffffffff1673ffffffffffffffffffffffffffffffffffffffff163373ffffffffffffffffffffffffffffffffffffffff1614612c5d576040517f08c379a0000000000000000000000000000000000000000000000000000000008152600401612c5490615f6d565b60405180910390fd5b600060065414612ca2576040517f08c379a0000000000000000000000000000000000000000000000000000000008152600401612c9990615e6d565b60405180910390fd5b8073ffffffffffffffffffffffffffffffffffffffff1663da35c6646040518163ffffffff1660e01b8152600401602060405180830381600087803b158015612cea57600080fd5b505af1158015612cfe573d6000803e3d6000fd5b505050506040513d601f19601f82011682018060405250612d2291908101906140db565b600781905550600754600681905550600860009054906101000a900473ffffffffffffffffffffffffffffffffffffffff1673ffffffffffffffffffffffffffffffffffffffff16630e18b6816040518163ffffffff1660e01b8152600401600060405180830381600087803b158015612d9b57600080fd5b505af1158015612daf573d6000803e3d6000fd5b5050505050565b60065481565b60056007811115612dc957fe5b612dd282611341565b6007811115612ddd57fe5b14612e1d576040517f08c379a0000000000000000000000000000000000000000000000000000000008152600401612e1490615d6d565b60405180910390fd5b6000600a60008381526020019081526020016000209050600181600c0160016101000a81548160ff02191690831515021790555060008090505b8160030180549050811015612fce57600860009054906101000a900473ffffffffffffffffffffffffffffffffffffffff1673ffffffffffffffffffffffffffffffffffffffff16630825f38f836004018381548110612eb357fe5b9060005260206000200154846003018481548110612ecd57fe5b9060005260206000200160009054906101000a900473ffffffffffffffffffffffffffffffffffffffff16856004018581548110612f0757fe5b9060005260206000200154866005018681548110612f2157fe5b90600052602060002001876006018781548110612f3a57fe5b9060005260206000200188600201546040518763ffffffff1660e01b8152600401612f699594939291906159bc565b6000604051808303818588803b158015612f8257600080fd5b505af1158015612f96573d6000803e3d6000fd5b50505050506040513d6000823e3d601f19601f82011682018060405250612fc09190810190614071565b508080600101915050612e57565b507f712ae1383f79ac853f8d882153778e0260ef8f03b504e2866e0593e04d2b291f82604051612ffe9190616068565b60405180910390a15050565b6000804690508091505090565b60006001600781111561302657fe5b61302f84611341565b600781111561303a57fe5b1461307a576040517f08c379a000000000000000000000000000000000000000000000000000000000815260040161307190615ced565b60405180910390fd5b60028260ff1611156130c1576040517f08c379a00000000000000000000000000000000000000000000000000000000081526004016130b890615bcd565b60405180910390fd5b6000600a60008581526020019081526020016000209050600081600d0160008773ffffffffffffffffffffffffffffffffffffffff1673ffffffffffffffffffffffffffffffffffffffff1681526020019081526020016000209050600015158160000160009054906101000a900460ff16151514613175576040517f08c379a000000000000000000000000000000000000000000000000000000000815260040161316c90615d0d565b60405180910390fd5b6000600960009054906101000a900473ffffffffffffffffffffffffffffffffffffffff1673ffffffffffffffffffffffffffffffffffffffff1663782d6fe18885600701546040518363ffffffff1660e01b81526004016131d8929190615932565b60206040518083038186803b1580156131f057600080fd5b505afa158015613204573d6000803e3d6000fd5b505050506040513d601f19601f82011682018060405250613228919081019061425f565b905060008560ff16141561325f5761325283600a0154826bffffffffffffffffffffffff16613341565b83600a01819055506132c7565b60018560ff161415613294576132878360090154826bffffffffffffffffffffffff16613341565b83600901819055506132c6565b60028560ff1614156132c5576132bc83600b0154826bffffffffffffffffffffffff16613341565b83600b01819055505b5b5b60018260000160006101000a81548160ff021916908315150217905550848260000160016101000a81548160ff021916908360ff160217905550808260000160026101000a8154816bffffffffffffffffffffffff02191690836bffffffffffffffffffffffff1602179055508093505050509392505050565b60008082840190508381101561338c576040517f08c379a000000000000000000000000000000000000000000000000000000000815260040161338390615e4d565b60405180910390fd5b8091505092915050565b6000828211156133db576040517f08c379a00000000000000000000000000000000000000000000000000000000081526004016133d29061602d565b60405180910390fd5b818303905092915050565b600860009054906101000a900473ffffffffffffffffffffffffffffffffffffffff1673ffffffffffffffffffffffffffffffffffffffff1663f2b06537868686868660405160200161343d95949392919061595b565b604051602081830303815290604052805190602001206040518263ffffffff1660e01b815260040161346f9190615a7e565b60206040518083038186803b15801561348757600080fd5b505afa15801561349b573d6000803e3d6000fd5b505050506040513d601f19601f820116820180604052506134bf919081019061401f565b156134ff576040517f08c379a00000000000000000000000000000000000000000000000000000000081526004016134f690615c2d565b60405180910390fd5b600860009054906101000a900473ffffffffffffffffffffffffffffffffffffffff1673ffffffffffffffffffffffffffffffffffffffff16633a66f90186868686866040518663ffffffff1660e01b815260040161356295949392919061595b565b602060405180830381600087803b15801561357c57600080fd5b505af1158015613590573d6000803e3d6000fd5b505050506040513d601f19601f820116820180604052506135b49190810190614048565b505050505050565b604051806101c0016040528060008152602001600073ffffffffffffffffffffffffffffffffffffffff168152602001600081526020016060815260200160608152602001606081526020016060815260200160008152602001600081526020016000815260200160008152602001600081526020016000151581526020016000151581525090565b8280548282559060005260206000209081019282156136be579160200282015b828111156136bd5782518260006101000a81548173ffffffffffffffffffffffffffffffffffffffff021916908373ffffffffffffffffffffffffffffffffffffffff16021790555091602001919060010190613665565b5b5090506136cb9190613810565b5090565b82805482825590600052602060002090810192821561370b579160200282015b8281111561370a5782518255916020019190600101906136ef565b5b5090506137189190613853565b5090565b82805482825590600052602060002090810192821561376b579160200282015b8281111561376a57825182908051906020019061375a929190613878565b509160200191906001019061373c565b5b50905061377891906138f8565b5090565b8280548282559060005260206000209081019282156137cb579160200282015b828111156137ca5782518290805190602001906137ba929190613924565b509160200191906001019061379c565b5b5090506137d891906139a4565b5090565b6040518060600160405280600015158152602001600060ff16815260200160006bffffffffffffffffffffffff1681525090565b61385091905b8082111561384c57600081816101000a81549073ffffffffffffffffffffffffffffffffffffffff021916905550600101613816565b5090565b90565b61387591905b80821115613871576000816000905550600101613859565b5090565b90565b828054600181600116156101000203166002900490600052602060002090601f016020900481019282601f106138b957805160ff19168380011785556138e7565b828001600101855582156138e7579182015b828111156138e65782518255916020019190600101906138cb565b5b5090506138f49190613853565b5090565b61392191905b8082111561391d576000818161391491906139d0565b506001016138fe565b5090565b90565b828054600181600116156101000203166002900490600052602060002090601f016020900481019282601f1061396557805160ff1916838001178555613993565b82800160010185558215613993579182015b82811115613992578251825591602001919060010190613977565b5b5090506139a09190613853565b5090565b6139cd91905b808211156139c957600081816139c09190613a18565b506001016139aa565b5090565b90565b50805460018160011615610100020316600290046000825580601f106139f65750613a15565b601f016020900490600052602060002090810190613a149190613853565b5b50565b50805460018160011615610100020316600290046000825580601f10613a3e5750613a5d565b601f016020900490600052602060002090810190613a5c9190613853565b5b50565b600081359050613a6f8161672c565b92915050565b600082601f830112613a8657600080fd5b8135613a99613a94826162bd565b616290565b91508181835260208401935060208101905083856020840282011115613abe57600080fd5b60005b83811015613aee5781613ad48882613a60565b845260208401935060208301925050600181019050613ac1565b5050505092915050565b600082601f830112613b0957600080fd5b8135613b1c613b17826162e5565b616290565b9150818183526020840193506020810190508360005b83811015613b625781358601613b488882613ca2565b845260208401935060208301925050600181019050613b32565b5050505092915050565b600082601f830112613b7d57600080fd5b8135613b90613b8b8261630d565b616290565b9150818183526020840193506020810190508360005b83811015613bd65781358601613bbc8882613d94565b845260208401935060208301925050600181019050613ba6565b5050505092915050565b600082601f830112613bf157600080fd5b8135613c04613bff82616335565b616290565b91508181835260208401935060208101905083856020840282011115613c2957600080fd5b60005b83811015613c595781613c3f8882613e3c565b845260208401935060208301925050600181019050613c2c565b5050505092915050565b600081519050613c7281616743565b92915050565b600081359050613c878161675a565b92915050565b600081519050613c9c8161675a565b92915050565b600082601f830112613cb357600080fd5b8135613cc6613cc18261635d565b616290565b91508082526020830160208301858383011115613ce257600080fd5b613ced8382846166c2565b50505092915050565b600082601f830112613d0757600080fd5b8151613d1a613d1582616389565b616290565b91508082526020830160208301858383011115613d3657600080fd5b613d418382846166d1565b50505092915050565b60008083601f840112613d5c57600080fd5b8235905067ffffffffffffffff811115613d7557600080fd5b602083019150836001820283011115613d8d57600080fd5b9250929050565b600082601f830112613da557600080fd5b8135613db8613db3826163b5565b616290565b91508082526020830160208301858383011115613dd457600080fd5b613ddf8382846166c2565b50505092915050565b600082601f830112613df957600080fd5b8135613e0c613e07826163e1565b616290565b91508082526020830160208301858383011115613e2857600080fd5b613e338382846166c2565b50505092915050565b600081359050613e4b81616771565b92915050565b600081519050613e6081616771565b92915050565b600081359050613e7581616788565b92915050565b600081519050613e8a8161679f565b92915050565b600060208284031215613ea257600080fd5b6000613eb084828501613a60565b91505092915050565b600080600080600060a08688031215613ed157600080fd5b6000613edf88828901613a60565b9550506020613ef088828901613a60565b9450506040613f0188828901613e3c565b9350506060613f1288828901613e3c565b9250506080613f2388828901613e3c565b9150509295509295909350565b600080600080600060a08688031215613f4857600080fd5b600086013567ffffffffffffffff811115613f6257600080fd5b613f6e88828901613a75565b955050602086013567ffffffffffffffff811115613f8b57600080fd5b613f9788828901613be0565b945050604086013567ffffffffffffffff811115613fb457600080fd5b613fc088828901613b6c565b935050606086013567ffffffffffffffff811115613fdd57600080fd5b613fe988828901613af8565b925050608086013567ffffffffffffffff81111561400657600080fd5b61401288828901613de8565b9150509295509295909350565b60006020828403121561403157600080fd5b600061403f84828501613c63565b91505092915050565b60006020828403121561405a57600080fd5b600061406884828501613c8d565b91505092915050565b60006020828403121561408357600080fd5b600082015167ffffffffffffffff81111561409d57600080fd5b6140a984828501613cf6565b91505092915050565b6000602082840312156140c457600080fd5b60006140d284828501613e3c565b91505092915050565b6000602082840312156140ed57600080fd5b60006140fb84828501613e51565b91505092915050565b6000806040838503121561411757600080fd5b600061412585828601613e3c565b925050602061413685828601613a60565b9150509250929050565b6000806040838503121561415357600080fd5b600061416185828601613e3c565b925050602061417285828601613e66565b9150509250929050565b6000806000806060858703121561419257600080fd5b60006141a087828801613e3c565b94505060206141b187828801613e66565b935050604085013567ffffffffffffffff8111156141ce57600080fd5b6141da87828801613d4a565b925092505092959194509250565b600080600080600060a0868803121561420057600080fd5b600061420e88828901613e3c565b955050602061421f88828901613e66565b945050604061423088828901613e66565b935050606061424188828901613c78565b925050608061425288828901613c78565b9150509295509295909350565b60006020828403121561427157600080fd5b600061427f84828501613e7b565b91505092915050565b600061429483836142ef565b60208301905092915050565b60006142ac8383614530565b905092915050565b60006142c0838361468b565b905092915050565b60006142d4838361580a565b60208301905092915050565b6142e981616620565b82525050565b6142f881616596565b82525050565b61430781616596565b82525050565b600061431882616477565b6143228185616503565b935061432d8361640d565b8060005b8381101561435e5781516143458882614288565b9750614350836164cf565b925050600181019050614331565b5085935050505092915050565b600061437682616482565b6143808185616514565b9350836020820285016143928561641d565b8060005b858110156143ce57848403895281516143af85826142a0565b94506143ba836164dc565b925060208a01995050600181019050614396565b50829750879550505050505092915050565b60006143eb8261648d565b6143f58185616525565b9350836020820285016144078561642d565b8060005b85811015614443578484038952815161442485826142b4565b945061442f836164e9565b925060208a0199505060018101905061440b565b50829750879550505050505092915050565b600061446082616498565b61446a8185616536565b93506144758361643d565b8060005b838110156144a657815161448d88826142c8565b9750614498836164f6565b925050600181019050614479565b5085935050505092915050565b6144bc816165a8565b82525050565b6144cb816165a8565b82525050565b6144da816165b4565b82525050565b6144f16144ec826165b4565b616704565b82525050565b6000614502826164ae565b61450c8185616558565b935061451c8185602086016166d1565b6145258161670e565b840191505092915050565b600061453b826164a3565b6145458185616547565b93506145558185602086016166d1565b61455e8161670e565b840191505092915050565b60008154600181166000811461458657600181146145ac576145f0565b607f60028304166145978187616558565b955060ff1983168652602086019350506145f0565b600282046145ba8187616558565b95506145c58561644d565b60005b828110156145e7578154818901526001820191506020810190506145c8565b80880195505050505b505092915050565b61460181616632565b82525050565b61461081616656565b82525050565b61461f8161667a565b82525050565b6000614631838561657a565b935061463e8385846166c2565b6146478361670e565b840190509392505050565b600061465d826164c4565b614667818561657a565b93506146778185602086016166d1565b6146808161670e565b840191505092915050565b6000614696826164b9565b6146a08185616569565b93506146b08185602086016166d1565b6146b98161670e565b840191505092915050565b60006146cf826164b9565b6146d9818561657a565b93506146e98185602086016166d1565b6146f28161670e565b840191505092915050565b60008154600181166000811461471a576001811461474057614784565b607f600283041661472b818761657a565b955060ff198316865260208601935050614784565b6002820461474e818761657a565b955061475985616462565b60005b8281101561477b5781548189015260018201915060208101905061475c565b80880195505050505b505092915050565b600061479960328361657a565b91507f476f7665726e6f72427261766f3a3a63617374566f7465496e7465726e616c3a60008301527f20696e76616c696420766f7465207479706500000000000000000000000000006020830152604082019050919050565b60006147ff60288361658b565b91507f42616c6c6f742875696e743235362070726f706f73616c49642c75696e74382060008301527f737570706f7274290000000000000000000000000000000000000000000000006020830152602882019050919050565b600061486560338361657a565b91507f476f7665726e6f72427261766f3a3a696e697469616c697a653a2063616e206f60008301527f6e6c7920696e697469616c697a65206f6e6365000000000000000000000000006020830152604082019050919050565b60006148cb602a8361657a565b91507f476f7665726e6f72427261766f3a5f73657450656e64696e6741646d696e3a2060008301527f61646d696e206f6e6c79000000000000000000000000000000000000000000006020830152604082019050919050565b600061493160558361657a565b91507f476f7665726e6f72427261766f3a3a71756575654f72526576657274496e746560008301527f726e616c3a206964656e746963616c2070726f706f73616c20616374696f6e2060208301527f616c7265616479207175657565642061742065746100000000000000000000006040830152606082019050919050565b60006149bd602b8361657a565b91507f476f7665726e6f72427261766f3a3a5f736574566f74696e67506572696f643a60008301527f2061646d696e206f6e6c790000000000000000000000000000000000000000006020830152604082019050919050565b6000614a2360338361657a565b91507f476f7665726e6f72427261766f3a3a696e697469616c697a653a20696e76616c60008301527f69642074696d656c6f636b2061646472657373000000000000000000000000006020830152604082019050919050565b6000614a89602a8361657a565b91507f476f7665726e6f72427261766f3a3a5f736574566f74696e6744656c61793a2060008301527f61646d696e206f6e6c79000000000000000000000000000000000000000000006020830152604082019050919050565b6000614aef60318361657a565b91507f476f7665726e6f72427261766f3a3a70726f706f73653a20476f7665726e6f7260008301527f20427261766f206e6f74206163746976650000000000000000000000000000006020830152604082019050919050565b6000614b5560028361658b565b91507f19010000000000000000000000000000000000000000000000000000000000006000830152600282019050919050565b6000614b9560368361657a565b91507f476f7665726e6f72427261766f3a3a5f736574566f74696e67506572696f643a60008301527f20696e76616c696420766f74696e6720706572696f64000000000000000000006020830152604082019050919050565b6000614bfb60318361657a565b91507f476f7665726e6f72427261766f3a3a63617374566f7465496e7465726e616c3a60008301527f20766f74696e6720697320636c6f7365640000000000000000000000000000006020830152604082019050919050565b6000614c6160348361657a565b91507f476f7665726e6f72427261766f3a3a63617374566f7465496e7465726e616c3a60008301527f20766f74657220616c726561647920766f7465640000000000000000000000006020830152604082019050919050565b6000614cc760348361657a565b91507f476f7665726e6f72427261766f3a3a5f736574566f74696e6744656c61793a2060008301527f696e76616c696420766f74696e672064656c61790000000000000000000000006020830152604082019050919050565b6000614d2d60358361657a565b91507f476f7665726e6f72427261766f3a3a696e697469616c697a653a20696e76616c60008301527f69642070726f706f73616c207468726573686f6c6400000000000000000000006020830152604082019050919050565b6000614d9360458361657a565b91507f476f7665726e6f72427261766f3a3a657865637574653a2070726f706f73616c60008301527f2063616e206f6e6c79206265206578656375746564206966206974206973207160208301527f75657565640000000000000000000000000000000000000000000000000000006040830152606082019050919050565b6000614e1f602f8361657a565b91507f476f7665726e6f72427261766f3a3a63617374566f746542795369673a20696e60008301527f76616c6964207369676e617475726500000000000000000000000000000000006020830152604082019050919050565b6000614e85602f8361657a565b91507f476f7665726e6f72427261766f3a3a696e697469616c697a653a20696e76616c60008301527f696420766f74696e672064656c617900000000000000000000000000000000006020830152604082019050919050565b6000614eeb60448361657a565b91507f476f7665726e6f72427261766f3a3a70726f706f73653a2070726f706f73616c60008301527f2066756e6374696f6e20696e666f726d6174696f6e206172697479206d69736d60208301527f61746368000000000000000000000000000000000000000000000000000000006040830152606082019050919050565b6000614f7760258361657a565b91507f476f7665726e6f72427261766f3a3a696e697469616c697a653a2061646d696e60008301527f206f6e6c790000000000000000000000000000000000000000000000000000006020830152604082019050919050565b6000614fdd60408361657a565b91507f476f7665726e6f72427261766f3a3a5f73657450726f706f73616c546872657360008301527f686f6c643a20696e76616c69642070726f706f73616c207468726573686f6c646020830152604082019050919050565b600061504360448361657a565b91507f476f7665726e6f72427261766f3a3a71756575653a2070726f706f73616c206360008301527f616e206f6e6c792062652071756575656420696620697420697320737563636560208301527f65646564000000000000000000000000000000000000000000000000000000006040830152606082019050919050565b60006150cf60118361657a565b91507f6164646974696f6e206f766572666c6f770000000000000000000000000000006000830152602082019050919050565b600061510f60438361658b565b91507f454950373132446f6d61696e28737472696e67206e616d652c75696e7432353660008301527f20636861696e49642c6164647265737320766572696679696e67436f6e74726160208301527f63742900000000000000000000000000000000000000000000000000000000006040830152604382019050919050565b600061519b60308361657a565b91507f476f7665726e6f72427261766f3a3a5f696e6974696174653a2063616e206f6e60008301527f6c7920696e697469617465206f6e6365000000000000000000000000000000006020830152604082019050919050565b6000615201602c8361657a565b91507f476f7665726e6f72427261766f3a3a70726f706f73653a206d7573742070726f60008301527f7669646520616374696f6e7300000000000000000000000000000000000000006020830152604082019050919050565b6000615267602e8361657a565b91507f476f7665726e6f72427261766f3a5f61636365707441646d696e3a2070656e6460008301527f696e672061646d696e206f6e6c790000000000000000000000000000000000006020830152604082019050919050565b60006152cd602f8361657a565b91507f476f7665726e6f72427261766f3a3a696e697469616c697a653a20696e76616c60008301527f696420636f6d70206164647265737300000000000000000000000000000000006020830152604082019050919050565b6000615333602f8361657a565b91507f476f7665726e6f72427261766f3a3a63616e63656c3a2070726f706f7365722060008301527f61626f7665207468726573686f6c6400000000000000000000000000000000006020830152604082019050919050565b600061539960288361657a565b91507f476f7665726e6f72427261766f3a3a70726f706f73653a20746f6f206d616e7960008301527f20616374696f6e730000000000000000000000000000000000000000000000006020830152604082019050919050565b60006153ff60598361657a565b91507f476f7665726e6f72427261766f3a3a70726f706f73653a206f6e65206c69766560008301527f2070726f706f73616c207065722070726f706f7365722c20666f756e6420616e60208301527f20616c72656164792070656e64696e672070726f706f73616c000000000000006040830152606082019050919050565b600061548b60588361657a565b91507f476f7665726e6f72427261766f3a3a70726f706f73653a206f6e65206c69766560008301527f2070726f706f73616c207065722070726f706f7365722c20666f756e6420616e60208301527f20616c7265616479206163746976652070726f706f73616c00000000000000006040830152606082019050919050565b600061551760008361657a565b9150600082019050919050565b600061553160248361657a565b91507f476f7665726e6f72427261766f3a3a5f696e6974696174653a2061646d696e2060008301527f6f6e6c79000000000000000000000000000000000000000000000000000000006020830152604082019050919050565b6000615597603f8361657a565b91507f476f7665726e6f72427261766f3a3a70726f706f73653a2070726f706f73657260008301527f20766f7465732062656c6f772070726f706f73616c207468726573686f6c64006020830152604082019050919050565b60006155fd60368361657a565b91507f476f7665726e6f72427261766f3a3a63616e63656c3a2063616e6e6f7420636160008301527f6e63656c2065786563757465642070726f706f73616c000000000000000000006020830152604082019050919050565b600061566360308361657a565b91507f476f7665726e6f72427261766f3a3a5f73657450726f706f73616c546872657360008301527f686f6c643a2061646d696e206f6e6c79000000000000000000000000000000006020830152604082019050919050565b60006156c960298361657a565b91507f476f7665726e6f72427261766f3a3a73746174653a20696e76616c696420707260008301527f6f706f73616c20696400000000000000000000000000000000000000000000006020830152604082019050919050565b600061572f60308361657a565b91507f476f7665726e6f72427261766f3a3a696e697469616c697a653a20696e76616c60008301527f696420766f74696e6720706572696f64000000000000000000000000000000006020830152604082019050919050565b600061579560158361657a565b91507f7375627472616374696f6e20756e646572666c6f7700000000000000000000006000830152602082019050919050565b6060820160008201516157de60008501826144b3565b5060208201516157f16020850182615828565b5060408201516158046040850182615855565b50505050565b615813816165f1565b82525050565b615822816165f1565b82525050565b615831816165fb565b82525050565b615840816165fb565b82525050565b61584f816166b0565b82525050565b61585e81616608565b82525050565b600061586f826147f2565b9150819050919050565b600061588482614b48565b915061589082856144e0565b6020820191506158a082846144e0565b6020820191508190509392505050565b60006158bb82615102565b9150819050919050565b60006020820190506158da60008301846142fe565b92915050565b60006040820190506158f560008301856142e0565b6159026020830184615819565b9392505050565b600060408201905061591e60008301856142fe565b61592b60208301846142fe565b9392505050565b600060408201905061594760008301856142fe565b6159546020830184615819565b9392505050565b600060a08201905061597060008301886142fe565b61597d6020830187615819565b818103604083015261598f8186614652565b905081810360608301526159a381856144f7565b90506159b26080830184615819565b9695505050505050565b600060a0820190506159d160008301886142fe565b6159de6020830187615819565b81810360408301526159f081866146fd565b90508181036060830152615a048185614569565b9050615a136080830184615819565b9695505050505050565b60006080820190508181036000830152615a37818761430d565b90508181036020830152615a4b8186614455565b90508181036040830152615a5f81856143e0565b90508181036060830152615a73818461436b565b905095945050505050565b6000602082019050615a9360008301846144d1565b92915050565b6000608082019050615aae60008301876144d1565b615abb60208301866144d1565b615ac86040830185615819565b615ad560608301846142fe565b95945050505050565b6000606082019050615af360008301866144d1565b615b006020830185615819565b615b0d6040830184615837565b949350505050565b6000608082019050615b2a60008301876144d1565b615b376020830186615837565b615b4460408301856144d1565b615b5160608301846144d1565b95945050505050565b6000602082019050615b6f60008301846145f8565b92915050565b6000602082019050615b8a6000830184614607565b92915050565b6000602082019050615ba56000830184614616565b92915050565b60006020820190508181036000830152615bc581846146c4565b905092915050565b60006020820190508181036000830152615be68161478c565b9050919050565b60006020820190508181036000830152615c0681614858565b9050919050565b60006020820190508181036000830152615c26816148be565b9050919050565b60006020820190508181036000830152615c4681614924565b9050919050565b60006020820190508181036000830152615c66816149b0565b9050919050565b60006020820190508181036000830152615c8681614a16565b9050919050565b60006020820190508181036000830152615ca681614a7c565b9050919050565b60006020820190508181036000830152615cc681614ae2565b9050919050565b60006020820190508181036000830152615ce681614b88565b9050919050565b60006020820190508181036000830152615d0681614bee565b9050919050565b60006020820190508181036000830152615d2681614c54565b9050919050565b60006020820190508181036000830152615d4681614cba565b9050919050565b60006020820190508181036000830152615d6681614d20565b9050919050565b60006020820190508181036000830152615d8681614d86565b9050919050565b60006020820190508181036000830152615da681614e12565b9050919050565b60006020820190508181036000830152615dc681614e78565b9050919050565b60006020820190508181036000830152615de681614ede565b9050919050565b60006020820190508181036000830152615e0681614f6a565b9050919050565b60006020820190508181036000830152615e2681614fd0565b9050919050565b60006020820190508181036000830152615e4681615036565b9050919050565b60006020820190508181036000830152615e66816150c2565b9050919050565b60006020820190508181036000830152615e868161518e565b9050919050565b60006020820190508181036000830152615ea6816151f4565b9050919050565b60006020820190508181036000830152615ec68161525a565b9050919050565b60006020820190508181036000830152615ee6816152c0565b9050919050565b60006020820190508181036000830152615f0681615326565b9050919050565b60006020820190508181036000830152615f268161538c565b9050919050565b60006020820190508181036000830152615f46816153f2565b9050919050565b60006020820190508181036000830152615f668161547e565b9050919050565b60006020820190508181036000830152615f8681615524565b9050919050565b60006020820190508181036000830152615fa68161558a565b9050919050565b60006020820190508181036000830152615fc6816155f0565b9050919050565b60006020820190508181036000830152615fe681615656565b9050919050565b60006020820190508181036000830152616006816156bc565b9050919050565b6000602082019050818103600083015261602681615722565b9050919050565b6000602082019050818103600083015261604681615788565b9050919050565b600060608201905061606260008301846157c8565b92915050565b600060208201905061607d6000830184615819565b92915050565b600061012082019050616099600083018c615819565b6160a6602083018b6142e0565b81810360408301526160b8818a61430d565b905081810360608301526160cc8189614455565b905081810360808301526160e081886143e0565b905081810360a08301526160f4818761436b565b905061610360c0830186615819565b61611060e0830185615819565b8181036101008301526161238184614652565b90509a9950505050505050505050565b600061014082019050616149600083018d615819565b616156602083018c6142fe565b616163604083018b615819565b616170606083018a615819565b61617d6080830189615819565b61618a60a0830188615819565b61619760c0830187615819565b6161a460e0830186615819565b6161b26101008301856144c2565b6161c06101208301846144c2565b9b9a5050505050505050505050565b60006040820190506161e46000830185615819565b6161f16020830184615819565b9392505050565b600060808201905061620d6000830188615819565b61621a6020830187615837565b6162276040830186615846565b818103606083015261623a818486614625565b90509695505050505050565b600060808201905061625b6000830186615819565b6162686020830185615837565b6162756040830184615846565b81810360608301526162868161550a565b9050949350505050565b6000604051905081810181811067ffffffffffffffff821117156162b357600080fd5b8060405250919050565b600067ffffffffffffffff8211156162d457600080fd5b602082029050602081019050919050565b600067ffffffffffffffff8211156162fc57600080fd5b602082029050602081019050919050565b600067ffffffffffffffff82111561632457600080fd5b602082029050602081019050919050565b600067ffffffffffffffff82111561634c57600080fd5b602082029050602081019050919050565b600067ffffffffffffffff82111561637457600080fd5b601f19601f8301169050602081019050919050565b600067ffffffffffffffff8211156163a057600080fd5b601f19601f8301169050602081019050919050565b600067ffffffffffffffff8211156163cc57600080fd5b601f19601f8301169050602081019050919050565b600067ffffffffffffffff8211156163f857600080fd5b601f19601f8301169050602081019050919050565b6000819050602082019050919050565b6000819050602082019050919050565b6000819050602082019050919050565b6000819050602082019050919050565b60008190508160005260206000209050919050565b60008190508160005260206000209050919050565b600081519050919050565b600081519050919050565b600081519050919050565b600081519050919050565b600081519050919050565b600081519050919050565b600081519050919050565b600081519050919050565b6000602082019050919050565b6000602082019050919050565b6000602082019050919050565b6000602082019050919050565b600082825260208201905092915050565b600082825260208201905092915050565b600082825260208201905092915050565b600082825260208201905092915050565b600082825260208201905092915050565b600082825260208201905092915050565b600082825260208201905092915050565b600082825260208201905092915050565b600081905092915050565b60006165a1826165d1565b9050919050565b60008115159050919050565b6000819050919050565b60008190506165cc8261671f565b919050565b600073ffffffffffffffffffffffffffffffffffffffff82169050919050565b6000819050919050565b600060ff82169050919050565b60006bffffffffffffffffffffffff82169050919050565b600061662b8261668c565b9050919050565b600061663d82616644565b9050919050565b600061664f826165d1565b9050919050565b600061666182616668565b9050919050565b6000616673826165d1565b9050919050565b6000616685826165be565b9050919050565b60006166978261669e565b9050919050565b60006166a9826165d1565b9050919050565b60006166bb82616608565b9050919050565b82818337600083830152505050565b60005b838110156166ef5780820151818401526020810190506166d4565b838111156166fe576000848401525b50505050565b6000819050919050565b6000601f19601f8301169050919050565b6008811061672957fe5b50565b61673581616596565b811461674057600080fd5b50565b61674c816165a8565b811461675757600080fd5b50565b616763816165b4565b811461676e57600080fd5b50565b61677a816165f1565b811461678557600080fd5b50565b616791816165fb565b811461679c57600080fd5b50565b6167a881616608565b81146167b357600080fd5b5056fea365627a7a723158202f1de4ef5f6fca9e672367eb64d33cd0085eefd1b6c1433bfb608b4f09b1b05f6c6578706572696d656e74616cf564736f6c63430005100040",
  "linkReferences": {},
  "deployedLinkReferences": {}
}