{
  "_format": "hh-sol-artifact-1",
  "contractName": "Validate",
  "sourceName": "contracts/Validate.sol",
  "abi": [
    {
      "constant": true,
      "inputs": [],
      "name": "getStoredNumber",
      "outputs": [
        {
          "internalType": "uint256",
          "name": "",
          "type": "uint256"
        }
      ],
      "payable": false,
      "stateMutability": "view",
      "type": "function"
    },
    {
      "constant": false,
      "inputs": [
        {
          "internalType": "uint256",
          "name": "_num",
          "type": "uint256"
        }
      ],
      "name": "setStoredNumber",
      "outputs": [
        {
          "internalType": "uint256",
          "name": "",
          "type": "uint256"
        }
      ],
      "payable": false,
      "stateMutability": "nonpayable",
      "type": "function"
    },
    {
      "constant": true,
      "inputs": [],
      "name": "storedNumber",
      "outputs": [
        {
          "internalType": "uint256",
          "name": "",
          "type": "uint256"
        }
      ],
      "payable": false,
      "stateMutability": "view",
      "type": "function"
    },
    {
      "constant": false,
      "inputs": [
        {
          "internalType": "uint256",
          "name": "_tokens",
          "type": "uint256"
        }
      ],
      "name": "validate",
      "outputs": [
        {
          "internalType": "uint256",
          "name": "",
          "type": "uint256"
        }
      ],
      "payable": false,
      "stateMutability": "nonpayable",
      "type": "function"
    }
  ],
  "bytecode": "0x608060405234801561001057600080fd5b506103a2806100206000396000f3fe608060405234801561001057600080fd5b506004361061004c5760003560e01c806309ce9ccb14610051578063b92f9c061461006f578063ce4d01a3146100b1578063fc412ba1146100f3575b600080fd5b610059610111565b6040518082815260200191505060405180910390f35b61009b6004803603602081101561008557600080fd5b8101908080359060200190929190505050610117565b6040518082815260200191505060405180910390f35b6100dd600480360360208110156100c757600080fd5b81019080803590602001909291905050506101f7565b6040518082815260200191505060405180910390f35b6100fb610364565b6040518082815260200191505060405180910390f35b60005481565b60008042600160003373ffffffffffffffffffffffffffffffffffffffff1673ffffffffffffffffffffffffffffffffffffffff16815260200190815260200160002060000154111561016d5760019050610172565b600090505b806101e5576040517f08c379a000000000000000000000000000000000000000000000000000000000815260040180806020018281038252601f8152602001807f75736572206973206e6f742063757272656e746c792076616c6964617465640081525060200191505060405180910390fd5b82600081905550600054915050919050565b600080600160003373ffffffffffffffffffffffffffffffffffffffff1673ffffffffffffffffffffffffffffffffffffffff1681526020019081526020016000206000015414156102aa576040518060200160405280600f4201815250600160003373ffffffffffffffffffffffffffffffffffffffff1673ffffffffffffffffffffffffffffffffffffffff168152602001908152602001600020600082015181600001559050506000905061035f565b42600160003373ffffffffffffffffffffffffffffffffffffffff1673ffffffffffffffffffffffffffffffffffffffff16815260200190815260200160002060000154106102fc576001905061035f565b6040518060200160405280600a4201815250600160003373ffffffffffffffffffffffffffffffffffffffff1673ffffffffffffffffffffffffffffffffffffffff16815260200190815260200160002060008201518160000155905050600290505b919050565b6000805490509056fea265627a7a7231582026b210220fc4ea41698ed43b3951c13743376579e6a935c671a23d2d46b4d62b64736f6c63430005100032",
  "linkReferences": {},
  "deployedLinkReferences": {}
}